{
  "contractName": "Issuer",
  "abi": [
    {
      "anonymous": false,
      "inputs": [
        {
          "indexed": false,
          "internalType": "address",
          "name": "previousAdmin",
          "type": "address"
        },
        {
          "indexed": false,
          "internalType": "address",
          "name": "newAdmin",
          "type": "address"
        }
      ],
      "name": "AdminChanged",
      "type": "event"
    },
    {
      "anonymous": false,
      "inputs": [
        {
          "indexed": true,
          "internalType": "address",
          "name": "beacon",
          "type": "address"
        }
      ],
      "name": "BeaconUpgraded",
      "type": "event"
    },
    {
      "anonymous": false,
      "inputs": [
        {
          "indexed": true,
          "internalType": "uint256",
          "name": "_certificateId",
          "type": "uint256"
        }
      ],
      "name": "CertificateRevoked",
      "type": "event"
    },
    {
      "anonymous": false,
      "inputs": [
        {
          "indexed": true,
          "internalType": "address",
          "name": "_owner",
          "type": "address"
        },
        {
          "indexed": true,
          "internalType": "uint256",
          "name": "_certificateId",
          "type": "uint256"
        },
        {
          "indexed": true,
          "internalType": "uint256",
          "name": "_volume",
          "type": "uint256"
        }
      ],
      "name": "CertificateVolumeMinted",
      "type": "event"
    },
    {
      "anonymous": false,
      "inputs": [
        {
          "indexed": true,
          "internalType": "address",
          "name": "_owner",
          "type": "address"
        },
        {
          "indexed": true,
          "internalType": "uint256",
          "name": "_id",
          "type": "uint256"
        },
        {
          "indexed": true,
          "internalType": "uint256",
          "name": "_certificateId",
          "type": "uint256"
        }
      ],
      "name": "CertificationRequestApproved",
      "type": "event"
    },
    {
      "anonymous": false,
      "inputs": [
        {
          "indexed": true,
          "internalType": "address",
          "name": "operator",
          "type": "address"
        },
        {
          "indexed": false,
          "internalType": "address[]",
          "name": "_owners",
          "type": "address[]"
        },
        {
          "indexed": false,
          "internalType": "uint256[]",
          "name": "_ids",
          "type": "uint256[]"
        },
        {
          "indexed": false,
          "internalType": "uint256[]",
          "name": "_certificateIds",
          "type": "uint256[]"
        }
      ],
      "name": "CertificationRequestBatchApproved",
      "type": "event"
    },
    {
      "anonymous": false,
      "inputs": [
        {
          "indexed": true,
          "internalType": "address",
          "name": "_owner",
          "type": "address"
        },
        {
          "indexed": true,
          "internalType": "uint256",
          "name": "_id",
          "type": "uint256"
        }
      ],
      "name": "CertificationRequestRevoked",
      "type": "event"
    },
    {
      "anonymous": false,
      "inputs": [
        {
          "indexed": true,
          "internalType": "address",
          "name": "_owner",
          "type": "address"
        },
        {
          "indexed": true,
          "internalType": "uint256",
          "name": "_id",
          "type": "uint256"
        }
      ],
      "name": "CertificationRequested",
      "type": "event"
    },
    {
      "anonymous": false,
      "inputs": [
        {
          "indexed": true,
          "internalType": "address",
          "name": "operator",
          "type": "address"
        },
        {
          "indexed": false,
          "internalType": "address[]",
          "name": "_owners",
          "type": "address[]"
        },
        {
          "indexed": false,
          "internalType": "uint256[]",
          "name": "_id",
          "type": "uint256[]"
        }
      ],
      "name": "CertificationRequestedBatch",
      "type": "event"
    },
    {
      "anonymous": false,
      "inputs": [
        {
          "indexed": true,
          "internalType": "address",
          "name": "previousOwner",
          "type": "address"
        },
        {
          "indexed": true,
          "internalType": "address",
          "name": "newOwner",
          "type": "address"
        }
      ],
      "name": "OwnershipTransferred",
      "type": "event"
    },
    {
      "anonymous": false,
      "inputs": [
        {
          "indexed": true,
          "internalType": "address",
          "name": "implementation",
          "type": "address"
        }
      ],
      "name": "Upgraded",
      "type": "event"
    },
    {
      "inputs": [],
      "name": "certificateTopic",
      "outputs": [
        {
          "internalType": "uint256",
          "name": "",
          "type": "uint256"
        }
      ],
      "stateMutability": "view",
      "type": "function",
      "constant": true
    },
    {
      "inputs": [],
      "name": "owner",
      "outputs": [
        {
          "internalType": "address",
          "name": "",
          "type": "address"
        }
      ],
      "stateMutability": "view",
      "type": "function",
      "constant": true
    },
    {
      "inputs": [],
      "name": "privateIssuer",
      "outputs": [
        {
          "internalType": "address",
          "name": "",
          "type": "address"
        }
      ],
      "stateMutability": "view",
      "type": "function",
      "constant": true
    },
    {
      "inputs": [],
      "name": "registry",
      "outputs": [
        {
          "internalType": "contract RegistryExtended",
          "name": "",
          "type": "address"
        }
      ],
      "stateMutability": "view",
      "type": "function",
      "constant": true
    },
    {
      "inputs": [],
      "name": "renounceOwnership",
      "outputs": [],
      "stateMutability": "nonpayable",
      "type": "function"
    },
    {
      "inputs": [
        {
          "internalType": "address",
          "name": "newOwner",
          "type": "address"
        }
      ],
      "name": "transferOwnership",
      "outputs": [],
      "stateMutability": "nonpayable",
      "type": "function"
    },
    {
      "inputs": [
        {
          "internalType": "address",
          "name": "newImplementation",
          "type": "address"
        }
      ],
      "name": "upgradeTo",
      "outputs": [],
      "stateMutability": "nonpayable",
      "type": "function"
    },
    {
      "inputs": [
        {
          "internalType": "address",
          "name": "newImplementation",
          "type": "address"
        },
        {
          "internalType": "bytes",
          "name": "data",
          "type": "bytes"
        }
      ],
      "name": "upgradeToAndCall",
      "outputs": [],
      "stateMutability": "payable",
      "type": "function",
      "payable": true
    },
    {
      "inputs": [
        {
          "internalType": "uint256",
          "name": "_certificateTopic",
          "type": "uint256"
        },
        {
          "internalType": "address",
          "name": "_registry",
          "type": "address"
        }
      ],
      "name": "initialize",
      "outputs": [],
      "stateMutability": "nonpayable",
      "type": "function"
    },
    {
      "inputs": [
        {
          "internalType": "address",
          "name": "_privateIssuer",
          "type": "address"
        }
      ],
      "name": "setPrivateIssuer",
      "outputs": [],
      "stateMutability": "nonpayable",
      "type": "function"
    },
    {
      "inputs": [
        {
          "internalType": "uint256",
          "name": "_requestId",
          "type": "uint256"
        }
      ],
      "name": "getCertificationRequest",
      "outputs": [
        {
          "components": [
            {
              "internalType": "address",
              "name": "owner",
              "type": "address"
            },
            {
              "internalType": "bytes",
              "name": "data",
              "type": "bytes"
            },
            {
              "internalType": "bool",
              "name": "approved",
              "type": "bool"
            },
            {
              "internalType": "bool",
              "name": "revoked",
              "type": "bool"
            },
            {
              "internalType": "address",
              "name": "sender",
              "type": "address"
            }
          ],
          "internalType": "struct Issuer.CertificationRequest",
          "name": "",
          "type": "tuple"
        }
      ],
      "stateMutability": "view",
      "type": "function",
      "constant": true
    },
    {
      "inputs": [
        {
          "internalType": "bytes",
          "name": "_data",
          "type": "bytes"
        },
        {
          "internalType": "address",
          "name": "_owner",
          "type": "address"
        }
      ],
      "name": "requestCertificationFor",
      "outputs": [
        {
          "internalType": "uint256",
          "name": "",
          "type": "uint256"
        }
      ],
      "stateMutability": "nonpayable",
      "type": "function"
    },
    {
      "inputs": [
        {
          "internalType": "bytes[]",
          "name": "_data",
          "type": "bytes[]"
        },
        {
          "internalType": "address[]",
          "name": "_owners",
          "type": "address[]"
        }
      ],
      "name": "requestCertificationForBatch",
      "outputs": [
        {
          "internalType": "uint256[]",
          "name": "",
          "type": "uint256[]"
        }
      ],
      "stateMutability": "nonpayable",
      "type": "function"
    },
    {
      "inputs": [
        {
          "internalType": "bytes",
          "name": "_data",
          "type": "bytes"
        }
      ],
      "name": "requestCertification",
      "outputs": [
        {
          "internalType": "uint256",
          "name": "",
          "type": "uint256"
        }
      ],
      "stateMutability": "nonpayable",
      "type": "function"
    },
    {
      "inputs": [
        {
          "internalType": "uint256",
          "name": "_requestId",
          "type": "uint256"
        }
      ],
      "name": "revokeRequest",
      "outputs": [],
      "stateMutability": "nonpayable",
      "type": "function"
    },
    {
      "inputs": [
        {
          "internalType": "uint256",
          "name": "_certificateId",
          "type": "uint256"
        }
      ],
      "name": "revokeCertificate",
      "outputs": [],
      "stateMutability": "nonpayable",
      "type": "function"
    },
    {
      "inputs": [
        {
          "internalType": "uint256",
          "name": "_requestId",
          "type": "uint256"
        },
        {
          "internalType": "uint256",
          "name": "_value",
          "type": "uint256"
        }
      ],
      "name": "approveCertificationRequest",
      "outputs": [
        {
          "internalType": "uint256",
          "name": "",
          "type": "uint256"
        }
      ],
      "stateMutability": "nonpayable",
      "type": "function"
    },
    {
      "inputs": [
        {
          "internalType": "uint256[]",
          "name": "_requestIds",
          "type": "uint256[]"
        },
        {
          "internalType": "uint256[]",
          "name": "_values",
          "type": "uint256[]"
        }
      ],
      "name": "approveCertificationRequestBatch",
      "outputs": [
        {
          "internalType": "uint256[]",
          "name": "",
          "type": "uint256[]"
        }
      ],
      "stateMutability": "nonpayable",
      "type": "function"
    },
    {
      "inputs": [
        {
          "internalType": "address",
          "name": "_to",
          "type": "address"
        },
        {
          "internalType": "uint256",
          "name": "_value",
          "type": "uint256"
        },
        {
          "internalType": "bytes",
          "name": "_data",
          "type": "bytes"
        }
      ],
      "name": "issue",
      "outputs": [
        {
          "internalType": "uint256",
          "name": "",
          "type": "uint256"
        }
      ],
      "stateMutability": "nonpayable",
      "type": "function"
    },
    {
      "inputs": [
        {
          "internalType": "address[]",
          "name": "_to",
          "type": "address[]"
        },
        {
          "internalType": "uint256[]",
          "name": "_values",
          "type": "uint256[]"
        },
        {
          "internalType": "bytes[]",
          "name": "_data",
          "type": "bytes[]"
        }
      ],
      "name": "issueBatch",
      "outputs": [
        {
          "internalType": "uint256[]",
          "name": "",
          "type": "uint256[]"
        }
      ],
      "stateMutability": "nonpayable",
      "type": "function"
    },
    {
      "inputs": [
        {
          "internalType": "address",
          "name": "_to",
          "type": "address"
        },
        {
          "internalType": "uint256",
          "name": "_certificateId",
          "type": "uint256"
        },
        {
          "internalType": "uint256",
          "name": "_volume",
          "type": "uint256"
        }
      ],
      "name": "mint",
      "outputs": [],
      "stateMutability": "nonpayable",
      "type": "function"
    },
    {
      "inputs": [
        {
          "internalType": "uint256",
          "name": "_requestId",
          "type": "uint256"
        }
      ],
      "name": "isRequestValid",
      "outputs": [
        {
          "internalType": "bool",
          "name": "",
          "type": "bool"
        }
      ],
      "stateMutability": "view",
      "type": "function",
      "constant": true
    },
    {
      "inputs": [],
      "name": "getRegistryAddress",
      "outputs": [
        {
          "internalType": "address",
          "name": "",
          "type": "address"
        }
      ],
      "stateMutability": "view",
      "type": "function",
      "constant": true
    },
    {
      "inputs": [],
      "name": "getPrivateIssuerAddress",
      "outputs": [
        {
          "internalType": "address",
          "name": "",
          "type": "address"
        }
      ],
      "stateMutability": "view",
      "type": "function",
      "constant": true
    },
    {
      "inputs": [],
      "name": "version",
      "outputs": [
        {
          "internalType": "string",
          "name": "",
          "type": "string"
        }
      ],
      "stateMutability": "pure",
      "type": "function",
      "constant": true
    }
  ],
  "bytecode": "0x608060405234801561001057600080fd5b506130f7806100206000396000f3fe608060405260043610610183576000357c0100000000000000000000000000000000000000000000000000000000900480637b103999116100ee578063e3e47cb6116100a7578063f0b5b68d11610081578063f0b5b68d1461048f578063f21de1e8146104a5578063f2fde38b146104c3578063f689e18a146104e357600080fd5b8063e3e47cb61461042f578063e7d915cf1461044f578063ee7afd821461046f57600080fd5b80637b103999146103645780638da5cb5b146103845780639b709b7a146103a2578063bb3acde9146103c2578063d2174b18146103e2578063da35a26f1461040f57600080fd5b80633e42e9fa116101405780633e42e9fa146102825780634f1ef286146102a257806354fd4d50146102b55780636512f111146103015780636e5f20bd14610331578063715018a61461034f57600080fd5b806306f5497e14610188578063156e29f6146101aa57806320f2637d146101ca5780632b1f4388146101fd5780633659cfe6146102355780633db5717014610255575b600080fd5b34801561019457600080fd5b506101a86101a3366004612ae8565b610503565b005b3480156101b657600080fd5b506101a86101c5366004612845565b6105de565b3480156101d657600080fd5b506101ea6101e5366004612a9c565b6106ce565b6040519081526020015b60405180910390f35b34801561020957600080fd5b5060cb5461021d90600160a060020a031681565b604051600160a060020a0390911681526020016101f4565b34801561024157600080fd5b506101a861025036600461278a565b61086f565b34801561026157600080fd5b50610275610270366004612ae8565b610896565b6040516101f49190612efa565b34801561028e57600080fd5b506101a861029d36600461278a565b6109ba565b6101a86102b03660046127a4565b610acb565b3480156102c157600080fd5b50604080518082018252600481527f76302e3100000000000000000000000000000000000000000000000000000000602082015290516101f49190612e1e565b34801561030d57600080fd5b5061032161031c366004612ae8565b610ae4565b60405190151581526020016101f4565b34801561033d57600080fd5b5060cb54600160a060020a031661021d565b34801561035b57600080fd5b506101a8610c85565b34801561037057600080fd5b5060ca5461021d90600160a060020a031681565b34801561039057600080fd5b50603354600160a060020a031661021d565b3480156103ae57600080fd5b506101ea6103bd366004612a2f565b610cbe565b3480156103ce57600080fd5b506101ea6103dd3660046127f0565b610d0a565b3480156103ee57600080fd5b506104026103fd3660046129d8565b610d5b565b6040516101f49190612e0b565b34801561041b57600080fd5b506101a861042a366004612b18565b61142a565b34801561043b57600080fd5b506101ea61044a366004612b3a565b611531565b34801561045b57600080fd5b506101a861046a366004612ae8565b6117a7565b34801561047b57600080fd5b5061040261048a366004612877565b611930565b34801561049b57600080fd5b506101ea60c95481565b3480156104b157600080fd5b5060ca54600160a060020a031661021d565b3480156104cf57600080fd5b506101a86104de36600461278a565b6119c0565b3480156104ef57600080fd5b506104026104fe3660046128f1565b611a75565b603354600160a060020a031633146105395760405160e560020a62461bcd02815260040161053090612e8e565b60405180910390fd5b600081815260cf602052604090205460ff161561059b5760405160e560020a62461bcd02815260206004820152600f60248201527f416c7265616479207265766f6b656400000000000000000000000000000000006044820152606401610530565b600081815260cf6020526040808220805460ff191660011790555182917fefa6c5f47ac2523bb4db18032377bf7fdce0fa9d86eddcae1ca9bba38be615d791a250565b603354600160a060020a0316331461060b5760405160e560020a62461bcd02815260040161053090612e8e565b60ca546040517f836a104000000000000000000000000000000000000000000000000000000000815260048101849052600160a060020a038581166024830152604482018490529091169063836a104090606401600060405180830381600087803b15801561067957600080fd5b505af115801561068d573d6000803e3d6000fd5b50505050808284600160a060020a03167f41c2dee25673dbafd1129227b55cc9d9ba5887f7e753c351ce274f4641daf7e260405160405180910390a4505050565b6000600160a060020a0382166107295760405160e560020a62461bcd02815260206004820152601360248201527f4f776e65722063616e6e6f7420626520307830000000000000000000000000006044820152606401610530565b600060ce6000815461073a9061304d565b91905081905590506040518060a0016040528084600160a060020a0316815260200185815260200160001515815260200160001515815260200161077b3390565b600160a060020a03908116909152600083815260cc602090815260409091208351815473ffffffffffffffffffffffffffffffffffffffff191693169290921782558281015180516107d39260018501920190612520565b506040828101516002929092018054606085015160809095015161ffff1990911693151561ff00191693909317610100941515949094029390931775ffffffffffffffffffffffffffffffffffffffff0000191662010000600160a060020a039384160217909255905182918516907ffda3ec1cbd67cbf30346ae8c497a82d68bbfa00bd5d43b96761c03858a08367b90600090a39392505050565b61087881611dc5565b61089381604051806020016040528060008152506000611df2565b50565b6040805160a08101825260008082526060602083018190529282018190529181018290526080810191909152600082815260cc6020908152604091829020825160a081019093528054600160a060020a0316835260018101805491928401916108fe9061300f565b80601f016020809104026020016040519081016040528092919081815260200182805461092a9061300f565b80156109775780601f1061094c57610100808354040283529160200191610977565b820191906000526020600020905b81548152906001019060200180831161095a57829003601f168201915b50505091835250506002919091015460ff8082161515602084015261010082041615156040830152620100009004600160a060020a031660609091015292915050565b603354600160a060020a031633146109e75760405160e560020a62461bcd02815260040161053090612e8e565b600160a060020a038116610a405760405160e560020a62461bcd02815260206004820152601660248201527f43616e6e6f7420757365206164647265737320307830000000000000000000006044820152606401610530565b60cb54600160a060020a031615610a9c5760405160e560020a62461bcd02815260206004820152601a60248201527f507269766174652069737375657220616c7265616479207365740000000000006044820152606401610530565b60cb805473ffffffffffffffffffffffffffffffffffffffff1916600160a060020a0392909216919091179055565b610ad482611dc5565b610ae082826001611df2565b5050565b600060ce54821115610b3b5760405160e560020a62461bcd02815260206004820152601d60248201527f636572742072657175657374204944206f7574206f6620626f756e64730000006044820152606401610530565b600082815260cc60209081526040808320815160a081019092528054600160a060020a031682526001810180549293919291840191610b799061300f565b80601f0160208091040260200160405190810160405280929190818152602001828054610ba59061300f565b8015610bf25780601f10610bc757610100808354040283529160200191610bf2565b820191906000526020600020905b815481529060010190602001808311610bd557829003601f168201915b50505091835250506002919091015460ff80821615156020808501919091526101008304909116151560408085019190915262010000909204600160a060020a0316606090930192909252600086815260cd909252908190205490820151919250908015610c6257508160600151155b8015610c7d5750600081815260cf602052604090205460ff16155b949350505050565b603354600160a060020a03163314610cb25760405160e560020a62461bcd02815260040161053090612e8e565b610cbc6000611fb9565b565b6000610d0383838080601f0160208091040260200160405190810160405280939291908181526020018383808284376000920191909152506101e59250611dc1915050565b9392505050565b603354600090600160a060020a03163314610d3a5760405160e560020a62461bcd02815260040161053090612e8e565b6000610d4683866106ce565b9050610d528185611531565b95945050505050565b6060610d6f603354600160a060020a031690565b600160a060020a031633600160a060020a03161480610da1575060cb54600160a060020a031633600160a060020a0316145b610df05760405160e560020a62461bcd02815260206004820152601a60248201527f63616c6c6572206e6f74206f776e6572206f72206973737565720000000000006044820152606401610530565b8151835114610e145760405160e560020a62461bcd02815260040161053090612ec3565b60005b8351811015610eb457610e53848281518110610e465760e060020a634e487b7102600052603260045260246000fd5b6020026020010151612018565b610ea25760405160e560020a62461bcd02815260206004820152601b60248201527f616c726561647920617070726f766564206f72207265766f6b656400000000006044820152606401610530565b80610eac8161304d565b915050610e17565b506000835167ffffffffffffffff811115610ee25760e060020a634e487b7102600052604160045260246000fd5b604051908082528060200260200182016040528015610f0b578160200160208202803683370190505b5090506000845167ffffffffffffffff811115610f3b5760e060020a634e487b7102600052604160045260246000fd5b604051908082528060200260200182016040528015610f6e57816020015b6060815260200190600190039081610f595790505b5090506000855167ffffffffffffffff811115610f9e5760e060020a634e487b7102600052604160045260246000fd5b604051908082528060200260200182016040528015610fd157816020015b6060815260200190600190039081610fbc5790505b5090506000865167ffffffffffffffff8111156110015760e060020a634e487b7102600052604160045260246000fd5b60405190808252806020026020018201604052801561102a578160200160208202803683370190505b50905060005b87518110156112a357600060cc60008a84815181106110625760e060020a634e487b7102600052603260045260246000fd5b602090810291909101810151825281019190915260400160002060028101805460ff1916600117905580548751919250600160a060020a0316908790849081106110bf5760e060020a634e487b7102600052603260045260246000fd5b6020026020010190600160a060020a03169081600160a060020a0316815250508060010180546110ee9061300f565b80601f016020809104026020016040519081016040528092919081815260200182805461111a9061300f565b80156111675780601f1061113c57610100808354040283529160200191611167565b820191906000526020600020905b81548152906001019060200180831161114a57829003601f168201915b505050505085838151811061118f5760e060020a634e487b7102600052603260045260246000fd5b60200260200101819052508882815181106111bd5760e060020a634e487b7102600052603260045260246000fd5b60200260200101516040516024016111d791815260200190565b60408051601f198184030181529190526020810180517bffffffffffffffffffffffffffffffffffffffffffffffffffffffff167f6512f1110000000000000000000000000000000000000000000000000000000017905284518590849081106112545760e060020a634e487b7102600052603260045260246000fd5b602002602001018190525060c9548383815181106112855760e060020a634e487b7102600052603260045260246000fd5b6020908102919091010152508061129b8161304d565b915050611030565b5060ca546040517f8838a9d7000000000000000000000000000000000000000000000000000000008152600091600160a060020a031690638838a9d7906112f6908890879087908d908b90600401612d36565b600060405180830381600087803b15801561131057600080fd5b505af1158015611324573d6000803e3d6000fd5b505050506040513d6000823e601f3d908101601f1916820160405261134c9190810190612948565b905060005b88518110156113d95781818151811061137d5760e060020a634e487b7102600052603260045260246000fd5b602002602001015160cd60008b84815181106113ac5760e060020a634e487b7102600052603260045260246000fd5b602002602001015181526020019081526020016000208190555080806113d19061304d565b915050611351565b5033600160a060020a03167f01a6c640febca8004b4947f6a67609b27f450062162ced1b4f08edbdf5a67421868a8460405161141793929190612dc8565b60405180910390a2979650505050505050565b600054610100900460ff1680611443575060005460ff16155b6114625760405160e560020a62461bcd02815260040161053090612e31565b600054610100900460ff16158015611484576000805461ffff19166101011790555b600160a060020a0382166114dd5760405160e560020a62461bcd02815260206004820152601660248201527f43616e6e6f7420757365206164647265737320307830000000000000000000006044820152606401610530565b60c983905560ca805473ffffffffffffffffffffffffffffffffffffffff1916600160a060020a03841617905561151261212b565b61151a6121a9565b801561152c576000805461ff00191690555b505050565b6000611545603354600160a060020a031690565b600160a060020a031633600160a060020a03161480611577575060cb54600160a060020a031633600160a060020a0316145b6115c65760405160e560020a62461bcd02815260206004820152601a60248201527f63616c6c6572206e6f74206f776e6572206f72206973737565720000000000006044820152606401610530565b6115cf83612018565b61161e5760405160e560020a62461bcd02815260206004820152601b60248201527f616c726561647920617070726f766564206f72207265766f6b656400000000006044820152606401610530565b600083815260cc602052604080822060028101805460ff1916600117905560ca548154925160248101889052919392600160a060020a039182169263543d526d929091169060440160408051601f198184030181529181526020820180517bffffffffffffffffffffffffffffffffffffffffffffffffffffffff167f6512f1110000000000000000000000000000000000000000000000000000000017905260c95490517c010000000000000000000000000000000000000000000000000000000063ffffffff8616028152611701939291908a9060018a0190600401612c58565b602060405180830381600087803b15801561171b57600080fd5b505af115801561172f573d6000803e3d6000fd5b505050506040513d601f19601f820116820180604052508101906117539190612b00565b600086815260cd60205260408082208390558454905192935083928892600160a060020a03909216917f3e5ec6d038fea8aae03ddd86c2882c546a05ea282e753cf085c8213a61a7913091a4949350505050565b600081815260cc602052604090208054600160a060020a031633600160a060020a031614806117e05750603354600160a060020a031633145b61182f5760405160e560020a62461bcd02815260206004820152601b60248201527f556e617574686f72697a6564207265766f6b65207265717565737400000000006044820152606401610530565b6002810154610100900460ff161561188c5760405160e560020a62461bcd02815260206004820152600f60248201527f416c7265616479207265766f6b656400000000000000000000000000000000006044820152606401610530565b600281015460ff16156118e45760405160e560020a62461bcd02815260206004820152601e60248201527f43616e2774207265766f6b6520617070726f76656420726571756573747300006044820152606401610530565b60028101805461ff00191661010017905580546040518391600160a060020a0316907f2b117599f21d800ddd10552521c610b44ab51d64ac07ae5cb3ee28bbb19946e590600090a35050565b603354606090600160a060020a031633146119605760405160e560020a62461bcd02815260040161053090612e8e565b82518451146119845760405160e560020a62461bcd02815260040161053090612ec3565b81518351146119a85760405160e560020a62461bcd02815260040161053090612ec3565b60006119b48386611a75565b9050610d528185610d5b565b603354600160a060020a031633146119ed5760405160e560020a62461bcd02815260040161053090612e8e565b600160a060020a038116611a6c5760405160e560020a62461bcd02815260206004820152602660248201527f4f776e61626c653a206e6577206f776e657220697320746865207a65726f206160448201527f64647265737300000000000000000000000000000000000000000000000000006064820152608401610530565b61089381611fb9565b60606000835167ffffffffffffffff811115611aa45760e060020a634e487b7102600052604160045260246000fd5b604051908082528060200260200182016040528015611acd578160200160208202803683370190505b50905060005b8451811015611b7e576000600160a060020a0316848281518110611b0a5760e060020a634e487b7102600052603260045260246000fd5b6020026020010151600160a060020a03161415611b6c5760405160e560020a62461bcd02815260206004820152601360248201527f4f776e65722063616e6e6f7420626520307830000000000000000000000000006044820152606401610530565b80611b768161304d565b915050611ad3565b5060005b8451811015611d3857600060ce5482611b9b9190612fb0565b611ba6906001612fb0565b90506040518060a00160405280868481518110611bd65760e060020a634e487b7102600052603260045260246000fd5b6020026020010151600160a060020a03168152602001878481518110611c0f5760e060020a634e487b7102600052603260045260246000fd5b60200260200101518152602001600015158152602001600015158152602001611c353390565b600160a060020a03908116909152600083815260cc602090815260409091208351815473ffffffffffffffffffffffffffffffffffffffff19169316929092178255828101518051611c8d9260018501920190612520565b506040820151600290910180546060840151608090940151600160a060020a0316620100000275ffffffffffffffffffffffffffffffffffffffff0000199415156101000261ff00199415159490941661ffff1990921691909117929092179290921617905582518190849084908110611d1a5760e060020a634e487b7102600052603260045260246000fd5b60209081029190910101525080611d308161304d565b915050611b82565b5033600160a060020a03167f73f947da50ce21e8eb0e681f2ac946c39445951ffd5c80588338057ef29bc5be8483604051611d74929190612da3565b60405180910390a28060018251611d8b9190612fc8565b81518110611dac5760e060020a634e487b7102600052603260045260246000fd5b602090810291909101015160ce559392505050565b3390565b603354600160a060020a031633146108935760405160e560020a62461bcd02815260040161053090612e8e565b6000611e257f360894a13ba1a3210667c828492db98dca3e2076cc3735a920a3ca505d382bbc54600160a060020a031690565b9050611e3084612213565b600083511180611e3d5750815b15611e4e57611e4c84846122d8565b505b7f4910fdfa16fed3260ed0e7147f7cc6da11a60208b5b9406d12a635614ffd9143805460ff16611fb257805460ff19166001178155604051600160a060020a0383166024820152611efb90869060440160408051601f198184030181529190526020810180517bffffffffffffffffffffffffffffffffffffffffffffffffffffffff167f3659cfe6000000000000000000000000000000000000000000000000000000001790526122d8565b50805460ff191681557f360894a13ba1a3210667c828492db98dca3e2076cc3735a920a3ca505d382bbc54600160a060020a03838116911614611fa95760405160e560020a62461bcd02815260206004820152602f60248201527f45524331393637557067726164653a207570677261646520627265616b73206660448201527f75727468657220757067726164657300000000000000000000000000000000006064820152608401610530565b611fb2856123d4565b5050505050565b60338054600160a060020a0383811673ffffffffffffffffffffffffffffffffffffffff19831681179093556040519116919082907f8be0079c531659141344cd1fd0a4f28419497f9722a3daafe3b4186f6b6457e090600090a35050565b600081815260cc60209081526040808320815160a081019092528054600160a060020a031682526001810180548594840191906120549061300f565b80601f01602080910402602001604051908101604052809291908181526020018280546120809061300f565b80156120cd5780601f106120a2576101008083540402835291602001916120cd565b820191906000526020600020905b8154815290600101906020018083116120b057829003601f168201915b50505091835250506002919091015460ff80821615156020840152610100820416151560408084019190915262010000909104600160a060020a0316606090920191909152810151909150158015610d035750606001511592915050565b600054610100900460ff1680612144575060005460ff16155b6121635760405160e560020a62461bcd02815260040161053090612e31565b600054610100900460ff16158015612185576000805461ffff19166101011790555b61218d612414565b612195612481565b8015610893576000805461ff001916905550565b600054610100900460ff16806121c2575060005460ff16155b6121e15760405160e560020a62461bcd02815260040161053090612e31565b600054610100900460ff16158015612203576000805461ffff19166101011790555b61220b612414565b612195612414565b803b61228a5760405160e560020a62461bcd02815260206004820152602d60248201527f455243313936373a206e657720696d706c656d656e746174696f6e206973206e60448201527f6f74206120636f6e7472616374000000000000000000000000000000000000006064820152608401610530565b7f360894a13ba1a3210667c828492db98dca3e2076cc3735a920a3ca505d382bbc805473ffffffffffffffffffffffffffffffffffffffff1916600160a060020a0392909216919091179055565b6060823b6123515760405160e560020a62461bcd02815260206004820152602660248201527f416464726573733a2064656c65676174652063616c6c20746f206e6f6e2d636f60448201527f6e747261637400000000000000000000000000000000000000000000000000006064820152608401610530565b60008084600160a060020a03168460405161236c9190612c3c565b600060405180830381855af49150503d80600081146123a7576040519150601f19603f3d011682016040523d82523d6000602084013e6123ac565b606091505b5091509150610d52828260405180606001604052806027815260200161309b602791396124e4565b6123dd81612213565b604051600160a060020a038216907fbc7cd75a20ee27fd9adebab32041f755214dbc6bffa90cc0225b39da2e5c2d3b90600090a250565b600054610100900460ff168061242d575060005460ff16155b61244c5760405160e560020a62461bcd02815260040161053090612e31565b600054610100900460ff16158015612195576000805461ffff19166101011790558015610893576000805461ff001916905550565b600054610100900460ff168061249a575060005460ff16155b6124b95760405160e560020a62461bcd02815260040161053090612e31565b600054610100900460ff161580156124db576000805461ffff19166101011790555b61219533611fb9565b606083156124f3575081610d03565b8251156125035782518084602001fd5b8160405160e560020a62461bcd0281526004016105309190612e1e565b82805461252c9061300f565b90600052602060002090601f01602090048101928261254e5760008555612594565b82601f1061256757805160ff1916838001178555612594565b82800160010185558215612594579182015b82811115612594578251825591602001919060010190612579565b506125a09291506125a4565b5090565b5b808211156125a057600081556001016125a5565b8035600160a060020a03811681146125d057600080fd5b919050565b600082601f8301126125e5578081fd5b813560206125fa6125f583612f8c565b612f5b565b8281528181019085830183850287018401881015612616578586fd5b855b8581101561263b57612629826125b9565b84529284019290840190600101612618565b5090979650505050505050565b600082601f830112612658578081fd5b813560206126686125f583612f8c565b8281528181019085830183850287018401881015612684578586fd5b855b8581101561263b57813567ffffffffffffffff8111156126a4578788fd5b6126b28a87838c010161271f565b8552509284019290840190600101612686565b600082601f8301126126d5578081fd5b813560206126e56125f583612f8c565b8281528181019085830183850287018401881015612701578586fd5b855b8581101561263b57813584529284019290840190600101612703565b600082601f83011261272f578081fd5b813567ffffffffffffffff81111561274957612749613081565b61275c601f8201601f1916602001612f5b565b818152846020838601011115612770578283fd5b816020850160208301379081016020019190915292915050565b60006020828403121561279b578081fd5b610d03826125b9565b600080604083850312156127b6578081fd5b6127bf836125b9565b9150602083013567ffffffffffffffff8111156127da578182fd5b6127e68582860161271f565b9150509250929050565b600080600060608486031215612804578081fd5b61280d846125b9565b925060208401359150604084013567ffffffffffffffff81111561282f578182fd5b61283b8682870161271f565b9150509250925092565b600080600060608486031215612859578283fd5b612862846125b9565b95602085013595506040909401359392505050565b60008060006060848603121561288b578283fd5b833567ffffffffffffffff808211156128a2578485fd5b6128ae878388016125d5565b945060208601359150808211156128c3578384fd5b6128cf878388016126c5565b935060408601359150808211156128e4578283fd5b5061283b86828701612648565b60008060408385031215612903578182fd5b823567ffffffffffffffff8082111561291a578384fd5b61292686838701612648565b9350602085013591508082111561293b578283fd5b506127e6858286016125d5565b6000602080838503121561295a578182fd5b825167ffffffffffffffff811115612970578283fd5b8301601f81018513612980578283fd5b805161298e6125f582612f8c565b81815283810190838501858402850186018910156129aa578687fd5b8694505b838510156129cc5780518352600194909401939185019185016129ae565b50979650505050505050565b600080604083850312156129ea578182fd5b823567ffffffffffffffff80821115612a01578384fd5b612a0d868387016126c5565b93506020850135915080821115612a22578283fd5b506127e6858286016126c5565b60008060208385031215612a41578182fd5b823567ffffffffffffffff80821115612a58578384fd5b818501915085601f830112612a6b578384fd5b813581811115612a79578485fd5b866020828501011115612a8a578485fd5b60209290920196919550909350505050565b60008060408385031215612aae578182fd5b823567ffffffffffffffff811115612ac4578283fd5b612ad08582860161271f565b925050612adf602084016125b9565b90509250929050565b600060208284031215612af9578081fd5b5035919050565b600060208284031215612b11578081fd5b5051919050565b60008060408385031215612b2a578182fd5b82359150612adf602084016125b9565b60008060408385031215612b4c578182fd5b50508035926020909101359150565b6000815180845260208085019450808401835b83811015612b93578151600160a060020a031687529582019590820190600101612b6e565b509495945050505050565b6000815180845260208085019450848183028601828601855b8581101561263b578383038952612bcf838351612c10565b98850198925090840190600101612bb7565b6000815180845260208085019450808401835b83811015612b9357815187529582019590820190600101612bf4565b60008151808452612c28816020860160208601612fdf565b601f01601f19169290920160200192915050565b60008251612c4e818460208701612fdf565b9190910192915050565b600160a060020a03861681526000602060a081840152612c7b60a0840188612c10565b866040850152856060850152838103608085015282855484600282049050600180831680612caa57607f831692505b868310811415612ccb5760e060020a634e487b710288526022600452602488fd5b828652602086019550808015612ce85760018114612cf957612d23565b60ff19851687528787019550612d23565b60008b815260209020895b85811015612d1d57815489820152908401908901612d04565b88019650505b50939d9c50505050505050505050505050565b60a081526000612d4960a0830188612b5b565b8281036020840152612d5b8188612b9e565b90508281036040840152612d6f8187612be1565b90508281036060840152612d838186612be1565b90508281036080840152612d978185612b9e565b98975050505050505050565b604081526000612db66040830185612b5b565b8281036020840152610d528185612be1565b606081526000612ddb6060830186612b5b565b8281036020840152612ded8186612be1565b90508281036040840152612e018185612be1565b9695505050505050565b602081526000610d036020830184612be1565b602081526000610d036020830184612c10565b6020808252602e908201527f496e697469616c697a61626c653a20636f6e747261637420697320616c72656160408201527f647920696e697469616c697a6564000000000000000000000000000000000000606082015260800190565b6020808252818101527f4f776e61626c653a2063616c6c6572206973206e6f7420746865206f776e6572604082015260600190565b60208082526016908201527f417272617973206e6f742073616d65206c656e67746800000000000000000000604082015260600190565b602081526000600160a060020a03808451166020840152602084015160a06040850152612f2a60c0850182612c10565b90506040850151151560608501526060850151151560808501528160808601511660a0850152809250505092915050565b604051601f8201601f1916810167ffffffffffffffff81118282101715612f8457612f84613081565b604052919050565b600067ffffffffffffffff821115612fa657612fa6613081565b5060209081020190565b60008219821115612fc357612fc3613068565b500190565b600082821015612fda57612fda613068565b500390565b60005b83811015612ffa578181015183820152602001612fe2565b83811115613009576000848401525b50505050565b60028104600182168061302357607f821691505b602082108114156130475760e060020a634e487b7102600052602260045260246000fd5b50919050565b600060001982141561306157613061613068565b5060010190565b60e060020a634e487b7102600052601160045260246000fd5b60e060020a634e487b7102600052604160045260246000fdfe416464726573733a206c6f772d6c6576656c2064656c65676174652063616c6c206661696c6564a2646970667358221220441cb891915a1fcbd4dff4bda6784df171f468a2316eb2dcebaab760a7b151a864736f6c63430008040033",
  "immutableReferences": {},
  "source": "// SPDX-License-Identifier: GPL-3.0-or-later\npragma solidity 0.8.4;\n\nimport \"@openzeppelin/contracts-upgradeable/proxy/utils/Initializable.sol\";\nimport \"@openzeppelin/contracts-upgradeable/access/OwnableUpgradeable.sol\";\nimport \"@openzeppelin/contracts-upgradeable/proxy/utils/UUPSUpgradeable.sol\";\n\nimport \"./RegistryExtended.sol\";\n\n/// @title Issuer contract\n/// @notice Used to manage the request/approve workflow for issuing ERC-1888 certificates.\ncontract Issuer is Initializable, OwnableUpgradeable, UUPSUpgradeable {\n\n    // Certificate topic - check ERC-1888 topic description\n    uint256 public certificateTopic;\n\n    // ERC-1888 contract to issue certificates to\n    RegistryExtended public registry;\n\n    // Optional: Private Issuance contract\n    address public privateIssuer;\n\n    // Storage for CertificationRequest structs\n    mapping(uint256 => CertificationRequest) private _certificationRequests;\n\n    // Mapping from request ID to certificate ID\n    mapping(uint256 => uint256) private _requestToCertificate;\n\n    // Incrementing nonce, used for generating certification request IDs\n    uint256 private _latestCertificationRequestId;\n\n    // Mapping to whether a certificate with a specific ID has been revoked by the Issuer\n    mapping(uint256 => bool) private _revokedCertificates;\n\n    struct CertificationRequest {\n        address owner; // Owner of the request\n        bytes data;\n        bool approved;\n        bool revoked;\n        address sender;  // User that triggered the request creation\n    }\n\n    event CertificationRequested(address indexed _owner, uint256 indexed _id);\n    event CertificationRequestedBatch(address indexed operator, address[] _owners, uint256[] _id);\n    event CertificationRequestApproved(address indexed _owner, uint256 indexed _id, uint256 indexed _certificateId);\n    event CertificationRequestBatchApproved(address indexed operator, address[] _owners, uint256[] _ids, uint256[] _certificateIds);\n    event CertificationRequestRevoked(address indexed _owner, uint256 indexed _id);\n\n    event CertificateRevoked(uint256 indexed _certificateId);\n    event CertificateVolumeMinted(address indexed _owner, uint256 indexed _certificateId, uint256 indexed _volume);\n\n\t/// @notice Contructor.\n    /// @dev Uses the OpenZeppelin `initializer` for upgradeability.\n    /// @dev `_registry` cannot be the zero address.\n    function initialize(uint256 _certificateTopic, address _registry) public initializer {\n        require(_registry != address(0), \"Cannot use address 0x0\");\n\n        certificateTopic = _certificateTopic;\n\n        registry = RegistryExtended(_registry);\n        OwnableUpgradeable.__Ownable_init();\n        UUPSUpgradeable.__UUPSUpgradeable_init();\n    }\n\n\t/// @notice Attaches a private issuance contract to this issuance contract.\n    /// @dev `_privateIssuer` cannot be the zero address.\n    function setPrivateIssuer(address _privateIssuer) public onlyOwner {\n        require(_privateIssuer != address(0), \"Cannot use address 0x0\");\n        require(privateIssuer == address(0), \"Private issuer already set\");\n\n        privateIssuer = _privateIssuer;\n    }\n\n\t/*\n\t\tCertification requests\n\t*/\n\n    function getCertificationRequest(uint256 _requestId) public view returns (CertificationRequest memory) {\n        return _certificationRequests[_requestId];\n    }\n\n    function requestCertificationFor(bytes memory _data, address _owner) public returns (uint256) {\n        require(_owner != address(0), \"Owner cannot be 0x0\");\n\n        uint256 id = ++_latestCertificationRequestId;\n\n        _certificationRequests[id] = CertificationRequest({\n            owner: _owner,\n            data: _data,\n            approved: false,\n            revoked: false,\n            sender: _msgSender()\n        });\n\n        emit CertificationRequested(_owner, id);\n\n        return id;\n    }\n\n    function requestCertificationForBatch(bytes[] memory _data, address[] memory _owners) public returns (uint256[] memory) {\n        uint256[] memory requestIds = new uint256[](_data.length);\n\n        for (uint256 i = 0; i < _data.length; i++) {\n            require(_owners[i] != address(0), \"Owner cannot be 0x0\");\n        }\n\n        for (uint256 i = 0; i < _data.length; i++) {\n            uint256 id = i + _latestCertificationRequestId + 1;\n\n            _certificationRequests[id] = CertificationRequest({\n                owner: _owners[i],\n                data: _data[i],\n                approved: false,\n                revoked: false,\n                sender: _msgSender()\n            });\n\n            requestIds[i] = id;\n        }\n\n        emit CertificationRequestedBatch(_msgSender(), _owners, requestIds);\n\n        _latestCertificationRequestId = requestIds[requestIds.length - 1];\n\n        return requestIds;\n    }\n\n    function requestCertification(bytes calldata _data) external returns (uint256) {\n        return requestCertificationFor(_data, _msgSender());\n    }\n\n    function revokeRequest(uint256 _requestId) external {\n        CertificationRequest storage request = _certificationRequests[_requestId];\n\n        require(_msgSender() == request.owner || _msgSender() == OwnableUpgradeable.owner(), \"Unauthorized revoke request\");\n        require(!request.revoked, \"Already revoked\");\n        require(!request.approved, \"Can't revoke approved requests\");\n\n        request.revoked = true;\n\n        emit CertificationRequestRevoked(request.owner, _requestId);\n    }\n\n    function revokeCertificate(uint256 _certificateId) external onlyOwner {\n        require(!_revokedCertificates[_certificateId], \"Already revoked\");\n        _revokedCertificates[_certificateId] = true;\n\n        emit CertificateRevoked(_certificateId);\n    }\n\n    function approveCertificationRequest(\n        uint256 _requestId,\n        uint256 _value\n    ) public returns (uint256) {\n        require(_msgSender() == owner() || _msgSender() == privateIssuer, \"caller not owner or issuer\");\n        require(_requestNotApprovedOrRevoked(_requestId), \"already approved or revoked\");\n\n        CertificationRequest storage request = _certificationRequests[_requestId];\n        request.approved = true;\n\n        uint256 certificateId = registry.issue(\n            request.owner,\n            abi.encodeWithSignature(\"isRequestValid(uint256)\",_requestId),\n            certificateTopic,\n            _value,\n            request.data\n        );\n\n        _requestToCertificate[_requestId] = certificateId;\n\n        emit CertificationRequestApproved(request.owner, _requestId, certificateId);\n\n        return certificateId;\n    }\n\n    function approveCertificationRequestBatch(\n        uint256[] memory _requestIds,\n        uint256[] memory _values\n    ) public returns (uint256[] memory) {\n        require(_msgSender() == owner() || _msgSender() == privateIssuer, \"caller not owner or issuer\");\n        require(_requestIds.length == _values.length, \"Arrays not same length\");\n\n\t\tfor (uint256 i = 0; i < _requestIds.length; i++) {\n            require(_requestNotApprovedOrRevoked(_requestIds[i]), \"already approved or revoked\");\n\t\t}\n\n        address[] memory owners = new address[](_requestIds.length);\n        bytes[] memory data = new bytes[](_requestIds.length);\n        bytes[] memory validityData = new bytes[](_requestIds.length);\n        uint256[] memory topics = new uint256[](_requestIds.length);\n\n        for (uint256 i = 0; i < _requestIds.length; i++) {\n            CertificationRequest storage request = _certificationRequests[_requestIds[i]];\n            request.approved = true;\n\n            owners[i] = request.owner;\n            data[i] = request.data;\n            validityData[i] = abi.encodeWithSignature(\"isRequestValid(uint256)\",_requestIds[i]);\n            topics[i] = certificateTopic;\n        }\n\n        uint256[] memory certificateIds = registry.batchIssueMultiple(\n            owners,\n            validityData,\n            topics,\n            _values,\n            data\n        );\n\n        for (uint256 i = 0; i < _requestIds.length; i++) {\n            _requestToCertificate[_requestIds[i]] = certificateIds[i];\n        }\n\n        emit CertificationRequestBatchApproved(_msgSender(), owners, _requestIds, certificateIds);\n\n        return certificateIds;\n    }\n\n    /// @notice Directly issue a certificate without going through the request/approve procedure manually.\n    function issue(address _to, uint256 _value, bytes memory _data) public onlyOwner returns (uint256) {\n        uint256 requestId = requestCertificationFor(_data, _to);\n\n        return approveCertificationRequest(\n            requestId,\n            _value\n        );\n    }\n\n    /// @notice Directly issue a batch of certificates without going through the request/approve procedure manually.\n    function issueBatch(address[] memory _to, uint256[] memory _values, bytes[] memory _data) public onlyOwner returns (uint256[] memory) {\n        require(_to.length == _values.length, \"Arrays not same length\");\n        require(_values.length == _data.length, \"Arrays not same length\");\n    \n        uint256[] memory requestIds = requestCertificationForBatch(_data, _to);\n\n        return approveCertificationRequestBatch(\n            requestIds,\n            _values\n        );\n    }\n\n\t/// @notice Mint more volume to existing certificates\n    /// @param _to To whom the volume should be minted.\n\t/// @param _certificateId The ID of the certificate.\n\t/// @param _volume Volume that should be minted.\n\tfunction mint(address _to, uint256 _certificateId, uint256 _volume) external onlyOwner {\n        registry.mint(_certificateId, _to, _volume);\n\n        emit CertificateVolumeMinted(_to, _certificateId, _volume);\n\t}\n\n    /// @notice Validation for certification requests.\n    /// @dev Used by other contracts to validate the token.\n    /// @dev `_requestId` has to be an existing ID.\n    function isRequestValid(uint256 _requestId) external view returns (bool) {\n        require(_requestId <= _latestCertificationRequestId, \"cert request ID out of bounds\");\n\n        CertificationRequest memory request = _certificationRequests[_requestId];\n        uint256 certificateId = _requestToCertificate[_requestId];\n\n        return request.approved\n            && !request.revoked\n            && !_revokedCertificates[certificateId];\n    }\n\n\t/*\n\t\tInfo\n\t*/\n\n    function getRegistryAddress() external view returns (address) {\n        return address(registry);\n    }\n\n    function getPrivateIssuerAddress() external view returns (address) {\n        return privateIssuer;\n    }\n\n    function version() external pure returns (string memory) {\n        return \"v0.1\";\n    }\n\n\t/*\n\t\tPrivate methods\n\t*/\n\n    function _requestNotApprovedOrRevoked(uint256 _requestId) internal view returns (bool) {\n        CertificationRequest memory request = _certificationRequests[_requestId];\n\n        return !request.approved && !request.revoked;\n    }\n    \n    /// @notice Needed for OpenZeppelin contract upgradeability.\n    /// @dev Allow only to the owner of the contract.\n\tfunction _authorizeUpgrade(address) internal override onlyOwner {\n        // Allow only owner to authorize a smart contract upgrade\n    }\n}",
  "sourcePath": "/Users/van.tran/go/src/contract/issuer/contracts/Issuer.sol",
  "compiler": {
    "name": "solc",
    "version": "0.8.4+commit.c7e474f2.Emscripten.clang"
  },
  "schemaVersion": "3.4.3",
  "updatedAt": "2021-10-13T02:36:52.145Z",
  "networkType": "ethereum",
  "devdoc": {
    "kind": "dev",
    "methods": {
      "initialize(uint256,address)": {
        "details": "Uses the OpenZeppelin `initializer` for upgradeability.`_registry` cannot be the zero address."
      },
      "isRequestValid(uint256)": {
        "details": "Used by other contracts to validate the token.`_requestId` has to be an existing ID."
      },
      "mint(address,uint256,uint256)": {
        "params": {
          "_certificateId": "The ID of the certificate.",
          "_to": "To whom the volume should be minted.",
          "_volume": "Volume that should be minted."
        }
      },
      "owner()": {
        "details": "Returns the address of the current owner."
      },
      "renounceOwnership()": {
        "details": "Leaves the contract without owner. It will not be possible to call `onlyOwner` functions anymore. Can only be called by the current owner. NOTE: Renouncing ownership will leave the contract without an owner, thereby removing any functionality that is only available to the owner."
      },
      "setPrivateIssuer(address)": {
        "details": "`_privateIssuer` cannot be the zero address."
      },
      "transferOwnership(address)": {
        "details": "Transfers ownership of the contract to a new account (`newOwner`). Can only be called by the current owner."
      },
      "upgradeTo(address)": {
        "details": "Upgrade the implementation of the proxy to `newImplementation`. Calls {_authorizeUpgrade}. Emits an {Upgraded} event."
      },
      "upgradeToAndCall(address,bytes)": {
        "details": "Upgrade the implementation of the proxy to `newImplementation`, and subsequently execute the function call encoded in `data`. Calls {_authorizeUpgrade}. Emits an {Upgraded} event."
      }
    },
    "title": "Issuer contract",
    "version": 1
  },
  "userdoc": {
    "kind": "user",
    "methods": {
      "initialize(uint256,address)": {
        "notice": "Contructor."
      },
      "isRequestValid(uint256)": {
        "notice": "Validation for certification requests."
      },
      "issue(address,uint256,bytes)": {
        "notice": "Directly issue a certificate without going through the request/approve procedure manually."
      },
      "issueBatch(address[],uint256[],bytes[])": {
        "notice": "Directly issue a batch of certificates without going through the request/approve procedure manually."
      },
      "mint(address,uint256,uint256)": {
        "notice": "Mint more volume to existing certificates"
      },
      "setPrivateIssuer(address)": {
        "notice": "Attaches a private issuance contract to this issuance contract."
      }
    },
    "notice": "Used to manage the request/approve workflow for issuing ERC-1888 certificates.",
    "version": 1
  }
}