{
  "contractName": "PrivateIssuer",
  "abi": [
    {
      "anonymous": false,
      "inputs": [
        {
          "indexed": false,
          "internalType": "address",
          "name": "previousAdmin",
          "type": "address"
        },
        {
          "indexed": false,
          "internalType": "address",
          "name": "newAdmin",
          "type": "address"
        }
      ],
      "name": "AdminChanged",
      "type": "event"
    },
    {
      "anonymous": false,
      "inputs": [
        {
          "indexed": true,
          "internalType": "address",
          "name": "beacon",
          "type": "address"
        }
      ],
      "name": "BeaconUpgraded",
      "type": "event"
    },
    {
      "anonymous": false,
      "inputs": [
        {
          "indexed": true,
          "internalType": "uint256",
          "name": "_certificateId",
          "type": "uint256"
        },
        {
          "indexed": true,
          "internalType": "address",
          "name": "_owner",
          "type": "address"
        },
        {
          "indexed": true,
          "internalType": "uint256",
          "name": "_amount",
          "type": "uint256"
        }
      ],
      "name": "CertificateMigratedToPublic",
      "type": "event"
    },
    {
      "anonymous": false,
      "inputs": [
        {
          "indexed": true,
          "internalType": "address",
          "name": "_owner",
          "type": "address"
        },
        {
          "indexed": true,
          "internalType": "uint256",
          "name": "_id",
          "type": "uint256"
        },
        {
          "indexed": false,
          "internalType": "bytes32",
          "name": "_commitment",
          "type": "bytes32"
        }
      ],
      "name": "CommitmentUpdated",
      "type": "event"
    },
    {
      "anonymous": false,
      "inputs": [
        {
          "indexed": true,
          "internalType": "address",
          "name": "_owner",
          "type": "address"
        },
        {
          "indexed": true,
          "internalType": "uint256",
          "name": "_id",
          "type": "uint256"
        }
      ],
      "name": "MigrateToPublicRequested",
      "type": "event"
    },
    {
      "anonymous": false,
      "inputs": [
        {
          "indexed": true,
          "internalType": "address",
          "name": "previousOwner",
          "type": "address"
        },
        {
          "indexed": true,
          "internalType": "address",
          "name": "newOwner",
          "type": "address"
        }
      ],
      "name": "OwnershipTransferred",
      "type": "event"
    },
    {
      "anonymous": false,
      "inputs": [
        {
          "indexed": true,
          "internalType": "address",
          "name": "_owner",
          "type": "address"
        },
        {
          "indexed": true,
          "internalType": "uint256",
          "name": "_id",
          "type": "uint256"
        },
        {
          "indexed": true,
          "internalType": "uint256",
          "name": "_certificateId",
          "type": "uint256"
        }
      ],
      "name": "PrivateCertificationRequestApproved",
      "type": "event"
    },
    {
      "anonymous": false,
      "inputs": [
        {
          "indexed": true,
          "internalType": "address",
          "name": "_owner",
          "type": "address"
        },
        {
          "indexed": true,
          "internalType": "uint256",
          "name": "_certificateId",
          "type": "uint256"
        }
      ],
      "name": "PrivateTransferRequested",
      "type": "event"
    },
    {
      "anonymous": false,
      "inputs": [
        {
          "indexed": true,
          "internalType": "address",
          "name": "implementation",
          "type": "address"
        }
      ],
      "name": "Upgraded",
      "type": "event"
    },
    {
      "inputs": [],
      "name": "issuer",
      "outputs": [
        {
          "internalType": "contract Issuer",
          "name": "",
          "type": "address"
        }
      ],
      "stateMutability": "view",
      "type": "function",
      "constant": true
    },
    {
      "inputs": [],
      "name": "owner",
      "outputs": [
        {
          "internalType": "address",
          "name": "",
          "type": "address"
        }
      ],
      "stateMutability": "view",
      "type": "function",
      "constant": true
    },
    {
      "inputs": [],
      "name": "registry",
      "outputs": [
        {
          "internalType": "contract Registry",
          "name": "",
          "type": "address"
        }
      ],
      "stateMutability": "view",
      "type": "function",
      "constant": true
    },
    {
      "inputs": [],
      "name": "renounceOwnership",
      "outputs": [],
      "stateMutability": "nonpayable",
      "type": "function"
    },
    {
      "inputs": [
        {
          "internalType": "address",
          "name": "newOwner",
          "type": "address"
        }
      ],
      "name": "transferOwnership",
      "outputs": [],
      "stateMutability": "nonpayable",
      "type": "function"
    },
    {
      "inputs": [
        {
          "internalType": "address",
          "name": "newImplementation",
          "type": "address"
        }
      ],
      "name": "upgradeTo",
      "outputs": [],
      "stateMutability": "nonpayable",
      "type": "function"
    },
    {
      "inputs": [
        {
          "internalType": "address",
          "name": "newImplementation",
          "type": "address"
        },
        {
          "internalType": "bytes",
          "name": "data",
          "type": "bytes"
        }
      ],
      "name": "upgradeToAndCall",
      "outputs": [],
      "stateMutability": "payable",
      "type": "function",
      "payable": true
    },
    {
      "inputs": [
        {
          "internalType": "address",
          "name": "_issuer",
          "type": "address"
        }
      ],
      "name": "initialize",
      "outputs": [],
      "stateMutability": "nonpayable",
      "type": "function"
    },
    {
      "inputs": [
        {
          "internalType": "uint256",
          "name": "certificateId",
          "type": "uint256"
        }
      ],
      "name": "getCertificateCommitment",
      "outputs": [
        {
          "internalType": "bytes32",
          "name": "",
          "type": "bytes32"
        }
      ],
      "stateMutability": "view",
      "type": "function",
      "constant": true
    },
    {
      "inputs": [
        {
          "internalType": "uint256",
          "name": "_requestId",
          "type": "uint256"
        },
        {
          "internalType": "bytes32",
          "name": "_commitment",
          "type": "bytes32"
        }
      ],
      "name": "approveCertificationRequestPrivate",
      "outputs": [
        {
          "internalType": "uint256",
          "name": "",
          "type": "uint256"
        }
      ],
      "stateMutability": "nonpayable",
      "type": "function"
    },
    {
      "inputs": [
        {
          "internalType": "address",
          "name": "_to",
          "type": "address"
        },
        {
          "internalType": "bytes32",
          "name": "_commitment",
          "type": "bytes32"
        },
        {
          "internalType": "bytes",
          "name": "_data",
          "type": "bytes"
        }
      ],
      "name": "issuePrivate",
      "outputs": [
        {
          "internalType": "uint256",
          "name": "",
          "type": "uint256"
        }
      ],
      "stateMutability": "nonpayable",
      "type": "function"
    },
    {
      "inputs": [
        {
          "internalType": "uint256",
          "name": "_certificateId",
          "type": "uint256"
        },
        {
          "internalType": "bytes32",
          "name": "_ownerAddressLeafHash",
          "type": "bytes32"
        }
      ],
      "name": "requestPrivateTransfer",
      "outputs": [],
      "stateMutability": "nonpayable",
      "type": "function"
    },
    {
      "inputs": [
        {
          "internalType": "uint256",
          "name": "_certificateId",
          "type": "uint256"
        },
        {
          "components": [
            {
              "internalType": "bool",
              "name": "left",
              "type": "bool"
            },
            {
              "internalType": "bytes32",
              "name": "hash",
              "type": "bytes32"
            }
          ],
          "internalType": "struct PrivateIssuer.Proof[]",
          "name": "_proof",
          "type": "tuple[]"
        },
        {
          "internalType": "bytes32",
          "name": "_previousCommitment",
          "type": "bytes32"
        },
        {
          "internalType": "bytes32",
          "name": "_commitment",
          "type": "bytes32"
        }
      ],
      "name": "approvePrivateTransfer",
      "outputs": [
        {
          "internalType": "bool",
          "name": "",
          "type": "bool"
        }
      ],
      "stateMutability": "nonpayable",
      "type": "function"
    },
    {
      "inputs": [
        {
          "internalType": "uint256",
          "name": "_certificateId",
          "type": "uint256"
        },
        {
          "internalType": "bytes32",
          "name": "_ownerAddressLeafHash",
          "type": "bytes32"
        }
      ],
      "name": "requestMigrateToPublic",
      "outputs": [
        {
          "internalType": "uint256",
          "name": "_migrationRequestId",
          "type": "uint256"
        }
      ],
      "stateMutability": "nonpayable",
      "type": "function"
    },
    {
      "inputs": [
        {
          "internalType": "uint256",
          "name": "_certificateId",
          "type": "uint256"
        },
        {
          "internalType": "bytes32",
          "name": "_ownerAddressLeafHash",
          "type": "bytes32"
        },
        {
          "internalType": "address",
          "name": "_forAddress",
          "type": "address"
        }
      ],
      "name": "requestMigrateToPublicFor",
      "outputs": [
        {
          "internalType": "uint256",
          "name": "_migrationRequestId",
          "type": "uint256"
        }
      ],
      "stateMutability": "nonpayable",
      "type": "function"
    },
    {
      "inputs": [
        {
          "internalType": "uint256",
          "name": "_certificateId",
          "type": "uint256"
        }
      ],
      "name": "getPrivateTransferRequest",
      "outputs": [
        {
          "components": [
            {
              "internalType": "address",
              "name": "owner",
              "type": "address"
            },
            {
              "internalType": "bytes32",
              "name": "hash",
              "type": "bytes32"
            }
          ],
          "internalType": "struct PrivateIssuer.PrivateTransferRequest",
          "name": "",
          "type": "tuple"
        }
      ],
      "stateMutability": "view",
      "type": "function",
      "constant": true
    },
    {
      "inputs": [
        {
          "internalType": "uint256",
          "name": "_requestId",
          "type": "uint256"
        }
      ],
      "name": "getMigrationRequest",
      "outputs": [
        {
          "components": [
            {
              "internalType": "address",
              "name": "owner",
              "type": "address"
            },
            {
              "internalType": "uint256",
              "name": "certificateId",
              "type": "uint256"
            },
            {
              "internalType": "bytes32",
              "name": "hash",
              "type": "bytes32"
            },
            {
              "internalType": "bool",
              "name": "approved",
              "type": "bool"
            }
          ],
          "internalType": "struct PrivateIssuer.RequestStateChange",
          "name": "",
          "type": "tuple"
        }
      ],
      "stateMutability": "view",
      "type": "function",
      "constant": true
    },
    {
      "inputs": [
        {
          "internalType": "uint256",
          "name": "_certificateId",
          "type": "uint256"
        }
      ],
      "name": "getMigrationRequestId",
      "outputs": [
        {
          "internalType": "uint256",
          "name": "_migrationRequestId",
          "type": "uint256"
        }
      ],
      "stateMutability": "view",
      "type": "function",
      "constant": true
    },
    {
      "inputs": [
        {
          "internalType": "uint256",
          "name": "_requestId",
          "type": "uint256"
        },
        {
          "internalType": "uint256",
          "name": "_volume",
          "type": "uint256"
        },
        {
          "internalType": "string",
          "name": "_salt",
          "type": "string"
        },
        {
          "components": [
            {
              "internalType": "bool",
              "name": "left",
              "type": "bool"
            },
            {
              "internalType": "bytes32",
              "name": "hash",
              "type": "bytes32"
            }
          ],
          "internalType": "struct PrivateIssuer.Proof[]",
          "name": "_proof",
          "type": "tuple[]"
        }
      ],
      "name": "migrateToPublic",
      "outputs": [],
      "stateMutability": "nonpayable",
      "type": "function"
    },
    {
      "inputs": [],
      "name": "getIssuerAddress",
      "outputs": [
        {
          "internalType": "address",
          "name": "",
          "type": "address"
        }
      ],
      "stateMutability": "view",
      "type": "function",
      "constant": true
    },
    {
      "inputs": [],
      "name": "version",
      "outputs": [
        {
          "internalType": "string",
          "name": "",
          "type": "string"
        }
      ],
      "stateMutability": "pure",
      "type": "function",
      "constant": true
    }
  ],
  "bytecode": "0x608060405234801561001057600080fd5b506123fd806100206000396000f3fe608060405260043610610147576000357c0100000000000000000000000000000000000000000000000000000000900480637b103999116100c8578063abba27b51161008c578063abba27b5146103ec578063b747c9111461040c578063c13cbb631461042c578063c45029221461044c578063c4d66de81461046c578063f2fde38b1461048c57600080fd5b80637b1039991461031a5780637dbca0061461033a5780638da5cb5b1461035a5780639317058614610378578063a8551fd3146103a857600080fd5b80633659cfe61161010f5780633659cfe6146102575780634f1ef2861461027957806354fd4d501461028c578063715018a6146102d8578063750e247b146102ed57600080fd5b80631927b6a51461014c5780631d143848146101b357806326eb2fd1146101eb5780633163e28a1461021957806332e71ead14610239575b600080fd5b34801561015857600080fd5b5061016c610167366004611f36565b6104ac565b6040516101aa91908151600160a060020a03168152602080830151908201526040808301519082015260609182015115159181019190915260800190565b60405180910390f35b3480156101bf57600080fd5b5060c9546101d390600160a060020a031681565b604051600160a060020a0390911681526020016101aa565b3480156101f757600080fd5b5061020b610206366004611f36565b61055c565b6040519081526020016101aa565b34801561022557600080fd5b5061020b610234366004611d55565b610625565b34801561024557600080fd5b5060c954600160a060020a03166101d3565b34801561026357600080fd5b50610277610272366004611d1d565b610763565b005b610277610287366004611dac565b61078a565b34801561029857600080fd5b50604080518082018252600481527f76302e3100000000000000000000000000000000000000000000000000000000602082015290516101aa91906121b7565b3480156102e457600080fd5b506102776107a3565b3480156102f957600080fd5b5061020b610308366004611f36565b600090815260ce602052604090205490565b34801561032657600080fd5b5060ca546101d390600160a060020a031681565b34801561034657600080fd5b5061020b610355366004611fe3565b6107dc565b34801561036657600080fd5b50603354600160a060020a03166101d3565b34801561038457600080fd5b50610398610393366004611f66565b61081f565b60405190151581526020016101aa565b3480156103b457600080fd5b506103c86103c3366004611f36565b6109c4565b604080518251600160a060020a0316815260209283015192810192909252016101aa565b3480156103f857600080fd5b5061020b610407366004611fc2565b610a38565b34801561041857600080fd5b50610277610427366004611fc2565b610a45565b34801561043857600080fd5b5061027761044736600461201b565b610b3d565b34801561045857600080fd5b5061020b610467366004611fc2565b610edb565b34801561047857600080fd5b50610277610487366004611d1d565b611096565b34801561049857600080fd5b506102776104a7366004611d1d565b611233565b604080516080810182526000808252602082018190529181018290526060810191909152603354600160a060020a031633146105065760405160e560020a62461bcd0281526004016104fd90612227565b60405180910390fd5b50600081815260cb602090815260409182902082516080810184528154600160a060020a0316815260018201549281019290925260028101549282019290925260039091015460ff16151560608201525b919050565b603354600090600160a060020a0316331461058c5760405160e560020a62461bcd0281526004016104fd90612227565b600060015b60cf5481116105ce57600081815260cb60205260409020600101548414156105bc5791506105579050565b806105c68161230e565b915050610591565b508061061f5760405160e560020a62461bcd02815260206004820181905260248201527f756e61626c6520746f2066696e64206d6967726174696f6e207265717565737460448201526064016104fd565b50919050565b603354600090600160a060020a031633146106555760405160e560020a62461bcd0281526004016104fd90612227565b600160a060020a0384166106ae5760405160e560020a62461bcd02815260206004820152601660248201527f43616e6e6f74207573652061646472657373203078300000000000000000000060448201526064016104fd565b60c9546040517f20f2637d000000000000000000000000000000000000000000000000000000008152600091600160a060020a0316906320f2637d906106fa908690899060040161218c565b602060405180830381600087803b15801561071457600080fd5b505af1158015610728573d6000803e3d6000fd5b505050506040513d601f19601f8201168201806040525081019061074c9190611f4e565b90506107588185610edb565b9150505b9392505050565b61076c816112e8565b61078781604051806020016040528060008152506000611315565b50565b610793826112e8565b61079f82826001611315565b5050565b603354600160a060020a031633146107d05760405160e560020a62461bcd0281526004016104fd90612227565b6107da60006114dc565b565b603354600090600160a060020a0316331461080c5760405160e560020a62461bcd0281526004016104fd90612227565b61081784848461152e565b949350505050565b603354600090600160a060020a0316331461084f5760405160e560020a62461bcd0281526004016104fd90612227565b600086815260cc602052604090208054600160a060020a03166108b75760405160e560020a62461bcd02815260206004820152601d60248201527f4e6f6e2d6578697374696e672070726976617465207472616e7366657200000060448201526064016104fd565b6109188160010154848888808060200260200160405190810160405280939291908181526020016000905b8282101561090e576108ff60408302860136819003810190611edf565b815260200190600101906108e2565b505050505061164b565b6109675760405160e560020a62461bcd02815260206004820152601360248201527f496e76616c6964206d65726b6c6520747265650000000000000000000000000060448201526064016104fd565b604080518082018252600080825260208083018281528b835260cc90915292902090518154600160a060020a031916600160a060020a0390911617815590516001909101556109b7878585611730565b5060019695505050505050565b6040805180820190915260008082526020820152603354600160a060020a03163314610a055760405160e560020a62461bcd0281526004016104fd90612227565b50600090815260cc602090815260409182902082518084019093528054600160a060020a03168352600101549082015290565b600061075c83833361152e565b600082815260cc602052604090208054600160a060020a031615610aae5760405160e560020a62461bcd02815260206004820152601e60248201527f4f6e652070726976617465207472616e7366657220617420612074696d65000060448201526064016104fd565b6040518060400160405280610ac03390565b600160a060020a0390811682526020918201859052600086815260cc83526040902083518154600160a060020a03191692169190911781559101516001909101558233600160a060020a03167fde442453a4fabb4e6fe9cd90c427b54511e2e7712b8dfe60307a8de6209db0f160405160405180910390a3505050565b603354600160a060020a03163314610b6a5760405160e560020a62461bcd0281526004016104fd90612227565b600086815260cb60205260409020600381015460ff1615610bd05760405160e560020a62461bcd02815260206004820152601860248201527f5265717565737420616c726561647920617070726f766564000000000000000060448201526064016104fd565b6001810154600090815260cd602052604090205460ff1615610c375760405160e560020a62461bcd02815260206004820152601c60248201527f436572746966696361746520616c7265616479206d696772617465640000000060448201526064016104fd565b8054604051610c5891600160a060020a0316908890889088906020016120f2565b60405160208183030381529060405280519060200120816002015414610cc35760405160e560020a62461bcd02815260206004820152601d60248201527f526571756573746564206861736820646f6573206e6f74206d6174636800000060448201526064016104fd565b8054604080516020601f8801819004810282018101909252868152610d6c92600160a060020a031691899190899089908190840183828082843760009201829052506001890154815260ce602090815260408083205481518d8402810184019092528c8252955093508b92508a91829185015b82821015610d6257610d5360408302860136819003810190611edf565b81526020019060010190610d36565b50505050506117ea565b610dbb5760405160e560020a62461bcd02815260206004820152600d60248201527f496e76616c69642070726f6f660000000000000000000000000000000000000060448201526064016104fd565b60038101805460ff1916600190811790915560ca549082015482546040517f836a10400000000000000000000000000000000000000000000000000000000081526004810192909252600160a060020a039081166024830152604482018990529091169063836a104090606401600060405180830381600087803b158015610e4257600080fd5b505af1158015610e56573d6000803e3d6000fd5b5050505060018181018054600090815260cd60209081526040808320805460ff1916909517909455915480825260ce90925291822054610e9592611730565b805460018201546040518892600160a060020a031691907f5d348ef3cec3f8493cd139d1ee84e4c84f5b987f49646d7dfa226dbe98b770c990600090a450505050505050565b603354600090600160a060020a03163314610f0b5760405160e560020a62461bcd0281526004016104fd90612227565b60c9546040517fe3e47cb60000000000000000000000000000000000000000000000000000000081526004810185905260006024820181905291600160a060020a03169063e3e47cb690604401602060405180830381600087803b158015610f7257600080fd5b505af1158015610f86573d6000803e3d6000fd5b505050506040513d601f19601f82011682018060405250810190610faa9190611f4e565b9050610fb881600085611730565b60c9546040517f3db5717000000000000000000000000000000000000000000000000000000000815260048101869052600091600160a060020a031690633db571709060240160006040518083038186803b15801561101657600080fd5b505afa15801561102a573d6000803e3d6000fd5b505050506040513d6000823e601f3d908101601f191682016040526110529190810190611dfa565b805160405191925083918791600160a060020a0316907f382c89c3e15b040e673bdec044eba907f4e9af06293e0058163ca396cecb39ff90600090a4509392505050565b600054610100900460ff16806110af575060005460ff16155b6110ce5760405160e560020a62461bcd0281526004016104fd906121ca565b600054610100900460ff161580156110f0576000805461ffff19166101011790555b600160a060020a0382166111495760405160e560020a62461bcd02815260206004820152601660248201527f43616e6e6f74207573652061646472657373203078300000000000000000000060448201526064016104fd565b60c98054600160a060020a031916600160a060020a038416908117909155604080517ff21de1e8000000000000000000000000000000000000000000000000000000008152905163f21de1e891600480820192602092909190829003018186803b1580156111b657600080fd5b505afa1580156111ca573d6000803e3d6000fd5b505050506040513d601f19601f820116820180604052508101906111ee9190611d39565b60ca8054600160a060020a031916600160a060020a0392909216919091179055611216611830565b61121e6118ae565b801561079f576000805461ff00191690555050565b603354600160a060020a031633146112605760405160e560020a62461bcd0281526004016104fd90612227565b600160a060020a0381166112df5760405160e560020a62461bcd02815260206004820152602660248201527f4f776e61626c653a206e6577206f776e657220697320746865207a65726f206160448201527f646472657373000000000000000000000000000000000000000000000000000060648201526084016104fd565b610787816114dc565b603354600160a060020a031633146107875760405160e560020a62461bcd0281526004016104fd90612227565b60006113487f360894a13ba1a3210667c828492db98dca3e2076cc3735a920a3ca505d382bbc54600160a060020a031690565b905061135384611918565b6000835111806113605750815b156113715761136f84846119d0565b505b7f4910fdfa16fed3260ed0e7147f7cc6da11a60208b5b9406d12a635614ffd9143805460ff166114d557805460ff19166001178155604051600160a060020a038316602482015261141e90869060440160408051601f198184030181529190526020810180517bffffffffffffffffffffffffffffffffffffffffffffffffffffffff167f3659cfe6000000000000000000000000000000000000000000000000000000001790526119d0565b50805460ff191681557f360894a13ba1a3210667c828492db98dca3e2076cc3735a920a3ca505d382bbc54600160a060020a038381169116146114cc5760405160e560020a62461bcd02815260206004820152602f60248201527f45524331393637557067726164653a207570677261646520627265616b73206660448201527f757274686572207570677261646573000000000000000000000000000000000060648201526084016104fd565b6114d585611ad5565b5050505050565b60338054600160a060020a03838116600160a060020a0319831681179093556040519116919082907f8be0079c531659141344cd1fd0a4f28419497f9722a3daafe3b4186f6b6457e090600090a35050565b60008061153a85611b15565b9050801561158d5760405160e560020a62461bcd02815260206004820181905260248201527f4d6967726174696f6e207265717565737420616c72656164792065786973747360448201526064016104fd565b600060cf6000815461159e9061230e565b918290555060408051608081018252600160a060020a0387811680835260208084018c81528486018c815260006060870181815289825260cb90945287812096518754600160a060020a031916961695909517865590516001860155516002850155516003909301805460ff1916931515939093179092559151929350839290917fd18a53554a32a70376b6c223bfb0d84fc24caa3c704ef04eaf1b868e74ee8f6a91a395945050505050565b600083815b8351811015611725576000848281518110611694577f4e487b7100000000000000000000000000000000000000000000000000000000600052603260045260246000fd5b602002602001015190508060000151156116e3576020808201516040516116c692869101918252602082015260400190565b604051602081830303815290604052805190602001209250611712565b602080820151604080519283018690528201526060016040516020818303038152906040528051906020012092505b508061171d8161230e565b915050611650565b509092149392505050565b600083815260ce602052604090205482146117905760405160e560020a62461bcd02815260206004820152601b60248201527f50726576696f757320636f6d6d69746d656e7420696e76616c6964000000000060448201526064016104fd565b600083815260ce602052604090208190558233600160a060020a03167f20c9608d29cbc79a883dcda48c0f0a9f1babeccea0680f65ef20ce17b06dad15836040516117dd91815260200190565b60405180910390a3505050565b6000808686866040516020016118029392919061212b565b60405160208183030381529060405280519060200120905061182581858561164b565b979650505050505050565b600054610100900460ff1680611849575060005460ff16155b6118685760405160e560020a62461bcd0281526004016104fd906121ca565b600054610100900460ff1615801561188a576000805461ffff19166101011790555b611892611b60565b61189a611bcd565b8015610787576000805461ff001916905550565b600054610100900460ff16806118c7575060005460ff16155b6118e65760405160e560020a62461bcd0281526004016104fd906121ca565b600054610100900460ff16158015611908576000805461ffff19166101011790555b611910611b60565b61189a611b60565b803b61198f5760405160e560020a62461bcd02815260206004820152602d60248201527f455243313936373a206e657720696d706c656d656e746174696f6e206973206e60448201527f6f74206120636f6e74726163740000000000000000000000000000000000000060648201526084016104fd565b7f360894a13ba1a3210667c828492db98dca3e2076cc3735a920a3ca505d382bbc8054600160a060020a031916600160a060020a0392909216919091179055565b6060823b611a495760405160e560020a62461bcd02815260206004820152602660248201527f416464726573733a2064656c65676174652063616c6c20746f206e6f6e2d636f60448201527f6e7472616374000000000000000000000000000000000000000000000000000060648201526084016104fd565b60008084600160a060020a031684604051611a649190612170565b600060405180830381855af49150503d8060008114611a9f576040519150601f19603f3d011682016040523d82523d6000602084013e611aa4565b606091505b5091509150611acc82826040518060600160405280602781526020016123a160279139611c30565b95945050505050565b611ade81611918565b604051600160a060020a038216907fbc7cd75a20ee27fd9adebab32041f755214dbc6bffa90cc0225b39da2e5c2d3b90600090a250565b60008060015b60cf548111611b5957600081815260cb6020526040902060010154841415611b47575060019392505050565b80611b518161230e565b915050611b1b565b5092915050565b600054610100900460ff1680611b79575060005460ff16155b611b985760405160e560020a62461bcd0281526004016104fd906121ca565b600054610100900460ff1615801561189a576000805461ffff19166101011790558015610787576000805461ff001916905550565b600054610100900460ff1680611be6575060005460ff16155b611c055760405160e560020a62461bcd0281526004016104fd906121ca565b600054610100900460ff16158015611c27576000805461ffff19166101011790555b61189a336114dc565b60608315611c3f57508161075c565b825115611c4f5782518084602001fd5b8160405160e560020a62461bcd0281526004016104fd91906121b7565b80516105578161237d565b60008083601f840112611c88578182fd5b50813567ffffffffffffffff811115611c9f578182fd5b602083019150836020604083028501011115611cba57600080fd5b9250929050565b805161055781612392565b600082601f830112611cdc578081fd5b8135611cef611cea826122b6565b612285565b818152846020838601011115611d03578283fd5b816020850160208301379081016020019190915292915050565b600060208284031215611d2e578081fd5b813561075c8161237d565b600060208284031215611d4a578081fd5b815161075c8161237d565b600080600060608486031215611d69578182fd5b8335611d748161237d565b925060208401359150604084013567ffffffffffffffff811115611d96578182fd5b611da286828701611ccc565b9150509250925092565b60008060408385031215611dbe578182fd5b8235611dc98161237d565b9150602083013567ffffffffffffffff811115611de4578182fd5b611df085828601611ccc565b9150509250929050565b60006020808385031215611e0c578182fd5b825167ffffffffffffffff80821115611e23578384fd5b9084019060a08287031215611e36578384fd5b611e3e61225c565b8251611e498161237d565b81528284015182811115611e5b578586fd5b83019150601f82018713611e6d578485fd5b8151611e7b611cea826122b6565b8181528886838601011115611e8e578687fd5b611e9d828783018887016122de565b8286015250611eae60408401611cc1565b6040820152611ebf60608401611cc1565b6060820152611ed060808401611c6c565b60808201529695505050505050565b600060408284031215611ef0578081fd5b6040516040810181811067ffffffffffffffff82111715611f1357611f1361234e565b6040528235611f2181612392565b81526020928301359281019290925250919050565b600060208284031215611f47578081fd5b5035919050565b600060208284031215611f5f578081fd5b5051919050565b600080600080600060808688031215611f7d578081fd5b85359450602086013567ffffffffffffffff811115611f9a578182fd5b611fa688828901611c77565b9699909850959660408101359660609091013595509350505050565b60008060408385031215611fd4578182fd5b50508035926020909101359150565b600080600060608486031215611ff7578081fd5b833592506020840135915060408401356120108161237d565b809150509250925092565b60008060008060008060808789031215612033578384fd5b8635955060208701359450604087013567ffffffffffffffff80821115612058578586fd5b818901915089601f83011261206b578586fd5b813581811115612079578687fd5b8a602082850101111561208a578687fd5b6020830196508095505060608901359150808211156120a7578283fd5b506120b489828a01611c77565b979a9699509497509295939492505050565b600081518084526120de8160208601602086016122de565b601f01601f19169290920160200192915050565b6c01000000000000000000000000600160a060020a03861602815283601482015281836034830137600091016034019081529392505050565b6c01000000000000000000000000600160a060020a038516028152826014820152600082516121618160348501602087016122de565b91909101603401949350505050565b600082516121828184602087016122de565b9190910192915050565b60408152600061219f60408301856120c6565b9050600160a060020a03831660208301529392505050565b60208152600061075c60208301846120c6565b6020808252602e908201527f496e697469616c697a61626c653a20636f6e747261637420697320616c72656160408201527f647920696e697469616c697a6564000000000000000000000000000000000000606082015260800190565b6020808252818101527f4f776e61626c653a2063616c6c6572206973206e6f7420746865206f776e6572604082015260600190565b60405160a0810167ffffffffffffffff8111828210171561227f5761227f61234e565b60405290565b604051601f8201601f1916810167ffffffffffffffff811182821017156122ae576122ae61234e565b604052919050565b600067ffffffffffffffff8211156122d0576122d061234e565b50601f01601f191660200190565b60005b838110156122f95781810151838201526020016122e1565b83811115612308576000848401525b50505050565b6000600019821415612347577f4e487b710000000000000000000000000000000000000000000000000000000081526011600452602481fd5b5060010190565b7f4e487b7100000000000000000000000000000000000000000000000000000000600052604160045260246000fd5b600160a060020a038116811461078757600080fd5b801515811461078757600080fdfe416464726573733a206c6f772d6c6576656c2064656c65676174652063616c6c206661696c6564a264697066735822122069b4ca6c9148fc61b26a468fdeffac68e06f7cf7b7ab9fea0038bfcbb86dd0c964736f6c63430008040033",
  "immutableReferences": {},
  "source": "// SPDX-License-Identifier: GPL-3.0-or-later\npragma solidity 0.8.4;\n\nimport \"@openzeppelin/contracts-upgradeable/proxy/utils/Initializable.sol\";\nimport \"@openzeppelin/contracts-upgradeable/access/OwnableUpgradeable.sol\";\nimport \"@openzeppelin/contracts-upgradeable/proxy/utils/UUPSUpgradeable.sol\";\n\nimport \"./Issuer.sol\";\n\n/// @title Contract for private issuances.\n/// @dev Private certificate issuance differ from the public ones in a way that the fungible volumes that are being transferred/claimed are stored off-chain.\n/// @notice A privately issued certificate can later be migrated to be public.\ncontract PrivateIssuer is Initializable, OwnableUpgradeable, UUPSUpgradeable {\n\n\t// Public issuance contract\n\tIssuer public issuer;\n\n    // ERC-1888 contract to issue certificates to\n\tRegistry public registry;\n\n\t// Storage for RequestStateChange\n\tmapping(uint256 => RequestStateChange) private _requestMigrateToPublicStorage;\n\n\t// Storage for PrivateTransferRequest\n\tmapping(uint256 => PrivateTransferRequest) private _requestPrivateTransferStorage;\n\n\t// Mapping to keep track if a certification request has been migrated to public\n\tmapping(uint256 => bool) private _migrations;\n\n\t// Storing a commitment (proof) per certification request ID\n\tmapping(uint256 => bytes32) private _commitments;\n\n\t// Nonce for generating RequestStateChange IDs\n\tuint256 private _requestMigrateToPublicNonce;\n\n\t// Nonce for generating PrivateTransferRequest IDs\n\tuint256 private _requestPrivateTransferNonce;\n\n    struct PrivateTransferRequest {\n\t\taddress owner; // Address that requested a migration to public certificate\n\t\tbytes32 hash; // Commitment proof that\n\t}\n\n\tstruct RequestStateChange {\n\t\taddress owner; // Owner of the certificate\n\t\tuint256 certificateId; // ID of the issued certificate\n\t\tbytes32 hash; // Commitment (proof)\n\t\tbool approved;\n\t}\n\n\tstruct Proof {\n\t\tbool left;\n\t\tbytes32 hash;\n\t}\n\t\n\tevent PrivateCertificationRequestApproved(address indexed _owner, uint256 indexed _id, uint256 indexed _certificateId);\n\tevent CommitmentUpdated(address indexed _owner, uint256 indexed _id, bytes32 _commitment);\n\tevent MigrateToPublicRequested(address indexed _owner, uint256 indexed _id);\n\tevent PrivateTransferRequested(address indexed _owner, uint256 indexed _certificateId);\n\tevent CertificateMigratedToPublic(uint256 indexed _certificateId, address indexed _owner, uint256 indexed _amount);\n\t\n    /// @notice Constructor.\n    /// @dev Uses the OpenZeppelin `initializer` for upgradeability.\n\t/// @dev `_issuer` cannot be the zero address.\n    function initialize(address _issuer) public initializer {\n        require(_issuer != address(0), \"Cannot use address 0x0\");\n\n        issuer = Issuer(_issuer);\n\t\tregistry = Registry(issuer.getRegistryAddress());\n\n        OwnableUpgradeable.__Ownable_init();\n\t\tUUPSUpgradeable.__UUPSUpgradeable_init();\n    }\n\n\t/*\n\t\tCertification requests\n\t*/\n\n    /// @notice Get the commitment (proof) for a specific certificate.\n    function getCertificateCommitment(uint256 certificateId) public view returns (bytes32) {\n        return _commitments[certificateId];\n    }\n\n    function approveCertificationRequestPrivate(\n        uint256 _requestId,\n        bytes32 _commitment\n    ) public onlyOwner returns (uint256) {\n\t\tuint256 certificateId = issuer.approveCertificationRequest(_requestId, 0);\n        _updateCommitment(certificateId, 0x0, _commitment);\n\n\t\tIssuer.CertificationRequest memory request = issuer.getCertificationRequest(_requestId);\n\n        emit PrivateCertificationRequestApproved(request.owner, _requestId, certificateId);\n\n        return certificateId;\n    }\n\n\t/// @notice Directly issue a private certificate.\n    function issuePrivate(address _to, bytes32 _commitment, bytes memory _data) public onlyOwner returns (uint256) {\n        require(_to != address(0x0), \"Cannot use address 0x0\");\n\n        uint256 requestId = issuer.requestCertificationFor(_data, _to);\n\n        return approveCertificationRequestPrivate(\n            requestId,\n            _commitment\n        );\n    }\n\n\t/// @notice Request transferring a certain amount of tokens.\n\t/// @param _certificateId Certificate that you want to change the balances of.\n\t/// @param _ownerAddressLeafHash New updated proof (balances per address).\n\tfunction requestPrivateTransfer(uint256 _certificateId, bytes32 _ownerAddressLeafHash) external {\n\t\tPrivateTransferRequest storage currentRequest = _requestPrivateTransferStorage[_certificateId];\n\n\t\t// RESTRICTION: There can only be one private transfer request at a time per certificate.\n        require(currentRequest.owner == address(0x0), \"One private transfer at a time\");\n\n\t\t_requestPrivateTransferStorage[_certificateId] = PrivateTransferRequest({\n\t\t\towner: _msgSender(),\n\t\t\thash: _ownerAddressLeafHash\n\t\t});\n\n\t\temit PrivateTransferRequested(_msgSender(), _certificateId);\n\t}\n\n\t/// @notice Approve a private transfer of certificates.\n\tfunction approvePrivateTransfer(\n        uint256 _certificateId,\n        Proof[] calldata _proof,\n        bytes32 _previousCommitment,\n        bytes32 _commitment\n    ) external onlyOwner returns (bool) {\n\t\tPrivateTransferRequest storage pendingRequest = _requestPrivateTransferStorage[_certificateId];\n\n        require(pendingRequest.owner != address(0x0), \"Non-existing private transfer\");\n\t\trequire(validateMerkle(pendingRequest.hash, _commitment, _proof), \"Invalid merkle tree\");\n\n        _requestPrivateTransferStorage[_certificateId] = PrivateTransferRequest({\n\t\t\towner: address(0x0),\n\t\t\thash: \"\"\n\t\t});\n\n\t\t_updateCommitment(_certificateId, _previousCommitment, _commitment);\n\n        return true;\n\t}\n\n\t/// @notice Request the certificate volumes to be migrated from private to public.\n\t/// @param _certificateId Certificate that you want to migrate to public.\n\t/// @param _ownerAddressLeafHash Final balance proof.\n\tfunction requestMigrateToPublic(uint256 _certificateId, bytes32 _ownerAddressLeafHash) external returns (uint256 _migrationRequestId) {\n        return _requestMigrateToPublicFor(_certificateId, _ownerAddressLeafHash, _msgSender());\n\t}\n\n\t/// @notice Request the certificate volumes to be migrated from private to public for someone else.\n\t/// @param _certificateId Certificate that you want to migrate to public.\n\t/// @param _ownerAddressLeafHash Final balance proof.\n\t/// @param _forAddress Owner.\n\tfunction requestMigrateToPublicFor(uint256 _certificateId, bytes32 _ownerAddressLeafHash, address _forAddress) external onlyOwner returns (uint256 _migrationRequestId) {\n        return _requestMigrateToPublicFor(_certificateId, _ownerAddressLeafHash, _forAddress);\n\t}\n\n\t/// @notice Get the private transfer request that is currently active for a specific certificate.\n    function getPrivateTransferRequest(uint256 _certificateId) external view onlyOwner returns (PrivateTransferRequest memory) {\n        return _requestPrivateTransferStorage[_certificateId];\n    }\n\n\t/// @notice Get the migration request.\n    function getMigrationRequest(uint256 _requestId) external view onlyOwner returns (RequestStateChange memory) {\n        return _requestMigrateToPublicStorage[_requestId];\n    }\n\n\t/// @notice Get the migration request ID for a specific certificate.\n    function getMigrationRequestId(uint256 _certificateId) external view onlyOwner returns (uint256 _migrationRequestId) {\n        bool found = false;\n\n\t\tfor (uint256 i = 1; i <= _requestMigrateToPublicNonce; i++) {\n            if (_requestMigrateToPublicStorage[i].certificateId == _certificateId) {\n                found = true;\n\t\t\t    return i;\n            }\n\t\t}\n\n        require(found, \"unable to find migration request\");\n    }\n\n\t/// @notice Migrate a private certificate to be public.\n\t/// @param _requestId Migration Request ID.\n\t/// @param _volume Volume that should be minted.\n\t/// @param _salt Precise Proof salt.\n\t/// @param _proof Precise Proof.\n\tfunction migrateToPublic(\n        uint256 _requestId,\n        uint256 _volume,\n        string calldata _salt,\n        Proof[] calldata _proof\n    ) external onlyOwner {\n\t\tRequestStateChange storage request = _requestMigrateToPublicStorage[_requestId];\n\n\t\trequire(!request.approved, \"Request already approved\");\n        require(!_migrations[request.certificateId], \"Certificate already migrated\");\n\t\trequire(request.hash == keccak256(abi.encodePacked(request.owner, _volume, _salt)), \"Requested hash does not match\");\n        require(validateOwnershipProof(request.owner, _volume, _salt, _commitments[request.certificateId], _proof), \"Invalid proof\");\n\n\t\trequest.approved = true;\n\n        registry.mint(request.certificateId, request.owner, _volume);\n        _migrations[request.certificateId] = true;\n\n        _updateCommitment(request.certificateId, _commitments[request.certificateId], 0x0);\n\n        emit CertificateMigratedToPublic(request.certificateId, request.owner, _volume);\n\t}\n\n\t/*\n\t\tUtils\n\t*/\n\n\t/// @notice Validates that a `_ownerAddress` actually owns `_volume` in a precise proof.\n\t/// @param _ownerAddress Owner blockchain address.\n\t/// @param _volume Volume that the owner should have.\n\t/// @param _salt Precise Proof salt.\n\t/// @param _rootHash Hash of the merkle tree root.\n\t/// @param _proof Full Precise Proof.\n\tfunction validateOwnershipProof(\n        address _ownerAddress,\n        uint256 _volume,\n        string memory _salt,\n        bytes32 _rootHash,\n        Proof[] memory _proof\n    ) private pure returns (bool) {\n\t\tbytes32 leafHash = keccak256(abi.encodePacked(_ownerAddress, _volume, _salt));\n\n\t\treturn validateMerkle(leafHash, _rootHash, _proof);\n\t}\n\n\t/// @notice Validates that a `_leafHash` is a leaf in the `_proof` with a merkle root hash `_rootHash`.\n\t/// @param _leafHash Hash of the leaf in the merkle tree.\n\t/// @param _rootHash Hash of the merkle tree root.\n\t/// @param _proof Full Precise Proof.\n\tfunction validateMerkle(bytes32 _leafHash, bytes32 _rootHash, Proof[] memory _proof) private pure returns (bool) {\n\t\tbytes32 hash = _leafHash;\n\n\t\tfor (uint256 i = 0; i < _proof.length; i++) {\n\t\t\tProof memory p = _proof[i];\n\t\t\tif (p.left) {\n\t\t\t\thash = keccak256(abi.encodePacked(p.hash, hash));\n\t\t\t} else {\n\t\t\t\thash = keccak256(abi.encodePacked(hash, p.hash));\n\t\t\t}\n\t\t}\n\n\t\treturn _rootHash == hash;\n\t}\n\n\t/*\n\t\tPrivate methods\n\t*/\n\n\tfunction _updateCommitment(uint256 _id, bytes32 _previousCommitment, bytes32 _commitment) private {\n\t\trequire(_commitments[_id] == _previousCommitment, \"Previous commitment invalid\");\n\n\t\t_commitments[_id] = _commitment;\n\n\t\temit CommitmentUpdated(_msgSender(), _id, _commitment);\n\t}\n\n    function _migrationRequestExists(uint256 _certificateId) private view returns (bool) {\n        bool exists = false;\n\n\t\tfor (uint256 i = 1; i <= _requestMigrateToPublicNonce; i++) {\n            if (_requestMigrateToPublicStorage[i].certificateId == _certificateId) {\n                exists = true;\n                return exists;\n            }\n\t\t}\n\n        return exists;\n    }\n\n    function _requestMigrateToPublicFor(uint256 _certificateId, bytes32 _ownerAddressLeafHash, address _forAddress) private returns (uint256 _migrationRequestId) {\n        bool exists = _migrationRequestExists(_certificateId);\n        require(!exists, \"Migration request already exists\");\n\n\t\tuint256 id = ++_requestMigrateToPublicNonce;\n\n\t\t_requestMigrateToPublicStorage[id] = RequestStateChange({\n\t\t\towner: _forAddress,\n\t\t\thash: _ownerAddressLeafHash,\n\t\t\tcertificateId: _certificateId,\n\t\t\tapproved: false\n\t\t});\n\n\t\temit MigrateToPublicRequested(_forAddress, id);\n\n        return id;\n\t}\n\n\tfunction _authorizeUpgrade(address) internal override onlyOwner {\n\t\t// Allow only owner to authorize a smart contract upgrade\n\t}\n\n\t/*\n\t\tInfo\n\t*/\n\n    function getIssuerAddress() external view returns (address) {\n        return address(issuer);\n    }\n\n    function version() external pure returns (string memory) {\n        return \"v0.1\";\n    }\n}",
  "sourcePath": "/Users/van.tran/go/src/contract/issuer/contracts/PrivateIssuer.sol",
  "compiler": {
    "name": "solc",
    "version": "0.8.4+commit.c7e474f2.Emscripten.clang"
  },
  "schemaVersion": "3.4.3",
  "updatedAt": "2021-10-13T02:36:52.166Z",
  "networkType": "ethereum",
  "devdoc": {
    "details": "Private certificate issuance differ from the public ones in a way that the fungible volumes that are being transferred/claimed are stored off-chain.",
    "kind": "dev",
    "methods": {
      "initialize(address)": {
        "details": "Uses the OpenZeppelin `initializer` for upgradeability.`_issuer` cannot be the zero address."
      },
      "migrateToPublic(uint256,uint256,string,(bool,bytes32)[])": {
        "params": {
          "_proof": "Precise Proof.",
          "_requestId": "Migration Request ID.",
          "_salt": "Precise Proof salt.",
          "_volume": "Volume that should be minted."
        }
      },
      "owner()": {
        "details": "Returns the address of the current owner."
      },
      "renounceOwnership()": {
        "details": "Leaves the contract without owner. It will not be possible to call `onlyOwner` functions anymore. Can only be called by the current owner. NOTE: Renouncing ownership will leave the contract without an owner, thereby removing any functionality that is only available to the owner."
      },
      "requestMigrateToPublic(uint256,bytes32)": {
        "params": {
          "_certificateId": "Certificate that you want to migrate to public.",
          "_ownerAddressLeafHash": "Final balance proof."
        }
      },
      "requestMigrateToPublicFor(uint256,bytes32,address)": {
        "params": {
          "_certificateId": "Certificate that you want to migrate to public.",
          "_forAddress": "Owner.",
          "_ownerAddressLeafHash": "Final balance proof."
        }
      },
      "requestPrivateTransfer(uint256,bytes32)": {
        "params": {
          "_certificateId": "Certificate that you want to change the balances of.",
          "_ownerAddressLeafHash": "New updated proof (balances per address)."
        }
      },
      "transferOwnership(address)": {
        "details": "Transfers ownership of the contract to a new account (`newOwner`). Can only be called by the current owner."
      },
      "upgradeTo(address)": {
        "details": "Upgrade the implementation of the proxy to `newImplementation`. Calls {_authorizeUpgrade}. Emits an {Upgraded} event."
      },
      "upgradeToAndCall(address,bytes)": {
        "details": "Upgrade the implementation of the proxy to `newImplementation`, and subsequently execute the function call encoded in `data`. Calls {_authorizeUpgrade}. Emits an {Upgraded} event."
      }
    },
    "title": "Contract for private issuances.",
    "version": 1
  },
  "userdoc": {
    "kind": "user",
    "methods": {
      "approvePrivateTransfer(uint256,(bool,bytes32)[],bytes32,bytes32)": {
        "notice": "Approve a private transfer of certificates."
      },
      "getCertificateCommitment(uint256)": {
        "notice": "Get the commitment (proof) for a specific certificate."
      },
      "getMigrationRequest(uint256)": {
        "notice": "Get the migration request."
      },
      "getMigrationRequestId(uint256)": {
        "notice": "Get the migration request ID for a specific certificate."
      },
      "getPrivateTransferRequest(uint256)": {
        "notice": "Get the private transfer request that is currently active for a specific certificate."
      },
      "initialize(address)": {
        "notice": "Constructor."
      },
      "issuePrivate(address,bytes32,bytes)": {
        "notice": "Directly issue a private certificate."
      },
      "migrateToPublic(uint256,uint256,string,(bool,bytes32)[])": {
        "notice": "Migrate a private certificate to be public."
      },
      "requestMigrateToPublic(uint256,bytes32)": {
        "notice": "Request the certificate volumes to be migrated from private to public."
      },
      "requestMigrateToPublicFor(uint256,bytes32,address)": {
        "notice": "Request the certificate volumes to be migrated from private to public for someone else."
      },
      "requestPrivateTransfer(uint256,bytes32)": {
        "notice": "Request transferring a certain amount of tokens."
      }
    },
    "notice": "A privately issued certificate can later be migrated to be public.",
    "version": 1
  }
}