{
  "contractName": "Registry",
  "abi": [
    {
      "inputs": [
        {
          "internalType": "string",
          "name": "_uri",
          "type": "string"
        }
      ],
      "stateMutability": "nonpayable",
      "type": "constructor"
    },
    {
      "anonymous": false,
      "inputs": [
        {
          "indexed": true,
          "internalType": "address",
          "name": "account",
          "type": "address"
        },
        {
          "indexed": true,
          "internalType": "address",
          "name": "operator",
          "type": "address"
        },
        {
          "indexed": false,
          "internalType": "bool",
          "name": "approved",
          "type": "bool"
        }
      ],
      "name": "ApprovalForAll",
      "type": "event"
    },
    {
      "anonymous": false,
      "inputs": [
        {
          "indexed": true,
          "internalType": "address",
          "name": "_claimIssuer",
          "type": "address"
        },
        {
          "indexed": true,
          "internalType": "address",
          "name": "_claimSubject",
          "type": "address"
        },
        {
          "indexed": true,
          "internalType": "uint256[]",
          "name": "_topics",
          "type": "uint256[]"
        },
        {
          "indexed": false,
          "internalType": "uint256[]",
          "name": "_ids",
          "type": "uint256[]"
        },
        {
          "indexed": false,
          "internalType": "uint256[]",
          "name": "_values",
          "type": "uint256[]"
        },
        {
          "indexed": false,
          "internalType": "bytes[]",
          "name": "_claimData",
          "type": "bytes[]"
        }
      ],
      "name": "ClaimBatch",
      "type": "event"
    },
    {
      "anonymous": false,
      "inputs": [
        {
          "indexed": true,
          "internalType": "address",
          "name": "_claimIssuer",
          "type": "address"
        },
        {
          "indexed": true,
          "internalType": "address",
          "name": "_claimSubject",
          "type": "address"
        },
        {
          "indexed": true,
          "internalType": "uint256",
          "name": "_topic",
          "type": "uint256"
        },
        {
          "indexed": false,
          "internalType": "uint256",
          "name": "_id",
          "type": "uint256"
        },
        {
          "indexed": false,
          "internalType": "uint256",
          "name": "_value",
          "type": "uint256"
        },
        {
          "indexed": false,
          "internalType": "bytes",
          "name": "_claimData",
          "type": "bytes"
        }
      ],
      "name": "ClaimSingle",
      "type": "event"
    },
    {
      "anonymous": false,
      "inputs": [
        {
          "indexed": true,
          "internalType": "address",
          "name": "_issuer",
          "type": "address"
        },
        {
          "indexed": true,
          "internalType": "uint256[]",
          "name": "_topics",
          "type": "uint256[]"
        },
        {
          "indexed": false,
          "internalType": "uint256[]",
          "name": "_ids",
          "type": "uint256[]"
        },
        {
          "indexed": false,
          "internalType": "uint256[]",
          "name": "_values",
          "type": "uint256[]"
        }
      ],
      "name": "IssuanceBatch",
      "type": "event"
    },
    {
      "anonymous": false,
      "inputs": [
        {
          "indexed": true,
          "internalType": "address",
          "name": "_issuer",
          "type": "address"
        },
        {
          "indexed": true,
          "internalType": "uint256",
          "name": "_topic",
          "type": "uint256"
        },
        {
          "indexed": false,
          "internalType": "uint256",
          "name": "_id",
          "type": "uint256"
        },
        {
          "indexed": false,
          "internalType": "uint256",
          "name": "_value",
          "type": "uint256"
        }
      ],
      "name": "IssuanceSingle",
      "type": "event"
    },
    {
      "anonymous": false,
      "inputs": [
        {
          "indexed": true,
          "internalType": "address",
          "name": "operator",
          "type": "address"
        },
        {
          "indexed": true,
          "internalType": "address",
          "name": "from",
          "type": "address"
        },
        {
          "indexed": true,
          "internalType": "address",
          "name": "to",
          "type": "address"
        },
        {
          "indexed": false,
          "internalType": "uint256[]",
          "name": "ids",
          "type": "uint256[]"
        },
        {
          "indexed": false,
          "internalType": "uint256[]",
          "name": "values",
          "type": "uint256[]"
        }
      ],
      "name": "TransferBatch",
      "type": "event"
    },
    {
      "anonymous": false,
      "inputs": [
        {
          "indexed": true,
          "internalType": "address",
          "name": "operator",
          "type": "address"
        },
        {
          "indexed": true,
          "internalType": "address",
          "name": "from",
          "type": "address"
        },
        {
          "indexed": true,
          "internalType": "address",
          "name": "to",
          "type": "address"
        },
        {
          "indexed": false,
          "internalType": "uint256",
          "name": "id",
          "type": "uint256"
        },
        {
          "indexed": false,
          "internalType": "uint256",
          "name": "value",
          "type": "uint256"
        }
      ],
      "name": "TransferSingle",
      "type": "event"
    },
    {
      "anonymous": false,
      "inputs": [
        {
          "indexed": false,
          "internalType": "string",
          "name": "value",
          "type": "string"
        },
        {
          "indexed": true,
          "internalType": "uint256",
          "name": "id",
          "type": "uint256"
        }
      ],
      "name": "URI",
      "type": "event"
    },
    {
      "inputs": [
        {
          "internalType": "address",
          "name": "account",
          "type": "address"
        },
        {
          "internalType": "uint256",
          "name": "id",
          "type": "uint256"
        }
      ],
      "name": "balanceOf",
      "outputs": [
        {
          "internalType": "uint256",
          "name": "",
          "type": "uint256"
        }
      ],
      "stateMutability": "view",
      "type": "function",
      "constant": true
    },
    {
      "inputs": [
        {
          "internalType": "address[]",
          "name": "accounts",
          "type": "address[]"
        },
        {
          "internalType": "uint256[]",
          "name": "ids",
          "type": "uint256[]"
        }
      ],
      "name": "balanceOfBatch",
      "outputs": [
        {
          "internalType": "uint256[]",
          "name": "",
          "type": "uint256[]"
        }
      ],
      "stateMutability": "view",
      "type": "function",
      "constant": true
    },
    {
      "inputs": [
        {
          "internalType": "uint256",
          "name": "",
          "type": "uint256"
        }
      ],
      "name": "certificateStorage",
      "outputs": [
        {
          "internalType": "uint256",
          "name": "topic",
          "type": "uint256"
        },
        {
          "internalType": "address",
          "name": "issuer",
          "type": "address"
        },
        {
          "internalType": "bytes",
          "name": "validityData",
          "type": "bytes"
        },
        {
          "internalType": "bytes",
          "name": "data",
          "type": "bytes"
        }
      ],
      "stateMutability": "view",
      "type": "function",
      "constant": true
    },
    {
      "inputs": [
        {
          "internalType": "uint256",
          "name": "",
          "type": "uint256"
        },
        {
          "internalType": "address",
          "name": "",
          "type": "address"
        }
      ],
      "name": "claimedBalances",
      "outputs": [
        {
          "internalType": "uint256",
          "name": "",
          "type": "uint256"
        }
      ],
      "stateMutability": "view",
      "type": "function",
      "constant": true
    },
    {
      "inputs": [
        {
          "internalType": "address",
          "name": "account",
          "type": "address"
        },
        {
          "internalType": "address",
          "name": "operator",
          "type": "address"
        }
      ],
      "name": "isApprovedForAll",
      "outputs": [
        {
          "internalType": "bool",
          "name": "",
          "type": "bool"
        }
      ],
      "stateMutability": "view",
      "type": "function",
      "constant": true
    },
    {
      "inputs": [
        {
          "internalType": "address",
          "name": "from",
          "type": "address"
        },
        {
          "internalType": "address",
          "name": "to",
          "type": "address"
        },
        {
          "internalType": "uint256[]",
          "name": "ids",
          "type": "uint256[]"
        },
        {
          "internalType": "uint256[]",
          "name": "amounts",
          "type": "uint256[]"
        },
        {
          "internalType": "bytes",
          "name": "data",
          "type": "bytes"
        }
      ],
      "name": "safeBatchTransferFrom",
      "outputs": [],
      "stateMutability": "nonpayable",
      "type": "function"
    },
    {
      "inputs": [
        {
          "internalType": "address",
          "name": "from",
          "type": "address"
        },
        {
          "internalType": "address",
          "name": "to",
          "type": "address"
        },
        {
          "internalType": "uint256",
          "name": "id",
          "type": "uint256"
        },
        {
          "internalType": "uint256",
          "name": "amount",
          "type": "uint256"
        },
        {
          "internalType": "bytes",
          "name": "data",
          "type": "bytes"
        }
      ],
      "name": "safeTransferFrom",
      "outputs": [],
      "stateMutability": "nonpayable",
      "type": "function"
    },
    {
      "inputs": [
        {
          "internalType": "address",
          "name": "operator",
          "type": "address"
        },
        {
          "internalType": "bool",
          "name": "approved",
          "type": "bool"
        }
      ],
      "name": "setApprovalForAll",
      "outputs": [],
      "stateMutability": "nonpayable",
      "type": "function"
    },
    {
      "inputs": [
        {
          "internalType": "bytes4",
          "name": "interfaceId",
          "type": "bytes4"
        }
      ],
      "name": "supportsInterface",
      "outputs": [
        {
          "internalType": "bool",
          "name": "",
          "type": "bool"
        }
      ],
      "stateMutability": "view",
      "type": "function",
      "constant": true
    },
    {
      "inputs": [
        {
          "internalType": "uint256",
          "name": "",
          "type": "uint256"
        }
      ],
      "name": "uri",
      "outputs": [
        {
          "internalType": "string",
          "name": "",
          "type": "string"
        }
      ],
      "stateMutability": "view",
      "type": "function",
      "constant": true
    },
    {
      "inputs": [
        {
          "internalType": "address",
          "name": "_to",
          "type": "address"
        },
        {
          "internalType": "bytes",
          "name": "_validityData",
          "type": "bytes"
        },
        {
          "internalType": "uint256",
          "name": "_topic",
          "type": "uint256"
        },
        {
          "internalType": "uint256",
          "name": "_value",
          "type": "uint256"
        },
        {
          "internalType": "bytes",
          "name": "_data",
          "type": "bytes"
        }
      ],
      "name": "issue",
      "outputs": [
        {
          "internalType": "uint256",
          "name": "id",
          "type": "uint256"
        }
      ],
      "stateMutability": "nonpayable",
      "type": "function"
    },
    {
      "inputs": [
        {
          "internalType": "address",
          "name": "_to",
          "type": "address"
        },
        {
          "internalType": "bytes[]",
          "name": "_validityData",
          "type": "bytes[]"
        },
        {
          "internalType": "uint256[]",
          "name": "_topics",
          "type": "uint256[]"
        },
        {
          "internalType": "uint256[]",
          "name": "_values",
          "type": "uint256[]"
        },
        {
          "internalType": "bytes[]",
          "name": "_data",
          "type": "bytes[]"
        }
      ],
      "name": "batchIssue",
      "outputs": [
        {
          "internalType": "uint256[]",
          "name": "ids",
          "type": "uint256[]"
        }
      ],
      "stateMutability": "nonpayable",
      "type": "function"
    },
    {
      "inputs": [
        {
          "internalType": "uint256",
          "name": "_id",
          "type": "uint256"
        },
        {
          "internalType": "address",
          "name": "_to",
          "type": "address"
        },
        {
          "internalType": "uint256",
          "name": "_quantity",
          "type": "uint256"
        }
      ],
      "name": "mint",
      "outputs": [],
      "stateMutability": "nonpayable",
      "type": "function"
    },
    {
      "inputs": [
        {
          "internalType": "address",
          "name": "_from",
          "type": "address"
        },
        {
          "internalType": "address",
          "name": "_to",
          "type": "address"
        },
        {
          "internalType": "uint256",
          "name": "_id",
          "type": "uint256"
        },
        {
          "internalType": "uint256",
          "name": "_value",
          "type": "uint256"
        },
        {
          "internalType": "bytes",
          "name": "_data",
          "type": "bytes"
        },
        {
          "internalType": "bytes",
          "name": "_claimData",
          "type": "bytes"
        }
      ],
      "name": "safeTransferAndClaimFrom",
      "outputs": [],
      "stateMutability": "nonpayable",
      "type": "function"
    },
    {
      "inputs": [
        {
          "internalType": "address",
          "name": "_from",
          "type": "address"
        },
        {
          "internalType": "address",
          "name": "_to",
          "type": "address"
        },
        {
          "internalType": "uint256[]",
          "name": "_ids",
          "type": "uint256[]"
        },
        {
          "internalType": "uint256[]",
          "name": "_values",
          "type": "uint256[]"
        },
        {
          "internalType": "bytes",
          "name": "_data",
          "type": "bytes"
        },
        {
          "internalType": "bytes[]",
          "name": "_claimData",
          "type": "bytes[]"
        }
      ],
      "name": "safeBatchTransferAndClaimFrom",
      "outputs": [],
      "stateMutability": "nonpayable",
      "type": "function"
    },
    {
      "inputs": [
        {
          "internalType": "address",
          "name": "_owner",
          "type": "address"
        },
        {
          "internalType": "uint256",
          "name": "_id",
          "type": "uint256"
        }
      ],
      "name": "claimedBalanceOf",
      "outputs": [
        {
          "internalType": "uint256",
          "name": "",
          "type": "uint256"
        }
      ],
      "stateMutability": "view",
      "type": "function",
      "constant": true
    },
    {
      "inputs": [
        {
          "internalType": "address[]",
          "name": "_owners",
          "type": "address[]"
        },
        {
          "internalType": "uint256[]",
          "name": "_ids",
          "type": "uint256[]"
        }
      ],
      "name": "claimedBalanceOfBatch",
      "outputs": [
        {
          "internalType": "uint256[]",
          "name": "",
          "type": "uint256[]"
        }
      ],
      "stateMutability": "view",
      "type": "function",
      "constant": true
    },
    {
      "inputs": [
        {
          "internalType": "uint256",
          "name": "_id",
          "type": "uint256"
        }
      ],
      "name": "getCertificate",
      "outputs": [
        {
          "internalType": "address",
          "name": "issuer",
          "type": "address"
        },
        {
          "internalType": "uint256",
          "name": "topic",
          "type": "uint256"
        },
        {
          "internalType": "bytes",
          "name": "validityCall",
          "type": "bytes"
        },
        {
          "internalType": "bytes",
          "name": "data",
          "type": "bytes"
        }
      ],
      "stateMutability": "view",
      "type": "function",
      "constant": true
    }
  ],
  "bytecode": "0x60806040523480156200001157600080fd5b5060405162003f1338038062003f13833981016040819052620000349162000110565b80620000498164010000000062000051810204565b50506200026c565b8051620000669060029060208401906200006a565b5050565b8280546200007890620001e7565b90600052602060002090601f0160209004810192826200009c5760008555620000e7565b82601f10620000b757805160ff1916838001178555620000e7565b82800160010185558215620000e7579182015b82811115620000e7578251825591602001919060010190620000ca565b50620000f5929150620000f9565b5090565b5b80821115620000f55760008155600101620000fa565b6000602080838503121562000123578182fd5b825167ffffffffffffffff808211156200013b578384fd5b818501915085601f8301126200014f578384fd5b8151818111156200016457620001646200023d565b604051601f8201601f19908116603f011681019083821181831017156200018f576200018f6200023d565b816040528281528886848701011115620001a7578687fd5b8693505b82841015620001ca5784840186015181850187015292850192620001ab565b82841115620001db57868684830101525b98975050505050505050565b600281046001821680620001fc57607f821691505b6020821081141562000237577f4e487b7100000000000000000000000000000000000000000000000000000000600052602260045260246000fd5b50919050565b7f4e487b7100000000000000000000000000000000000000000000000000000000600052604160045260246000fd5b613c97806200027c6000396000f3fe608060405234801561001057600080fd5b50600436106101195760003560e060020a90048063836a1040116100a6578063c48238b011610075578063c48238b014610286578063c5308dd8146102b1578063d6878ffb146102c4578063e985e9c5146102e7578063f242432a1461032357600080fd5b8063836a10401461023a5780638673605a1461024d5780638ed8707514610260578063a22cb4651461027357600080fd5b80633ebbaaa5116100ed5780633ebbaaa51461019c5780634e1273f4146101d157806351640fee146101f1578063543d526d14610214578063760c6caf1461022757600080fd5b8062fdd58e1461011e57806301ffc9a7146101445780630e89341c146101675780632eb2c2d614610187575b600080fd5b61013161012c3660046131e3565b610336565b6040519081526020015b60405180910390f35b61015761015236600461335a565b6103e2565b604051901515815260200161013b565b61017a610175366004613392565b61047f565b60405161013b9190613795565b61019a610195366004612ea0565b610513565b005b6101316101aa3660046131e3565b6000908152600460209081526040808320600160a060020a03949094168352929052205490565b6101e46101df366004613275565b6105b8565b60405161013b9190613724565b6102046101ff366004613392565b61073d565b60405161013b949392919061362a565b610131610222366004613152565b610915565b61019a610235366004612dbd565b610b48565b61019a6102483660046133e4565b611137565b6101e461025b36600461304a565b611390565b6101e461026e36600461320c565b6117fb565b61019a61028136600461311c565b6119e0565b6101316102943660046133c2565b600460209081526000928352604080842090915290825290205481565b61019a6102bf366004612f46565b611ace565b6102d76102d2366004613392565b611e4d565b60405161013b94939291906139e7565b6101576102f5366004612d8b565b600160a060020a03918216600090815260016020908152604080832093909416825291909152205460ff1690565b61019a610331366004612fe7565b611f90565b6000600160a060020a0383166103bc5760405160e560020a62461bcd02815260206004820152602b60248201527f455243313135353a2062616c616e636520717565727920666f7220746865207a60448201527f65726f206164647265737300000000000000000000000000000000000000000060648201526084015b60405180910390fd5b50600090815260208181526040808320600160a060020a03949094168352929052205490565b6000600160e060020a031982167fd9b67a260000000000000000000000000000000000000000000000000000000014806104455750600160e060020a031982167f0e89341c00000000000000000000000000000000000000000000000000000000145b8061047957507f01ffc9a700000000000000000000000000000000000000000000000000000000600160e060020a03198316145b92915050565b60606002805461048e90613adc565b80601f01602080910402602001604051908101604052809291908181526020018280546104ba90613adc565b80156105075780601f106104dc57610100808354040283529160200191610507565b820191906000526020600020905b8154815290600101906020018083116104ea57829003601f168201915b50505050509050919050565b600160a060020a03851633148061052f575061052f85336102f5565b6105a45760405160e560020a62461bcd02815260206004820152603260248201527f455243313135353a207472616e736665722063616c6c6572206973206e6f742060448201527f6f776e6572206e6f7220617070726f766564000000000000000000000000000060648201526084016103b3565b6105b1858585858561202e565b5050505050565b606081518351146106345760405160e560020a62461bcd02815260206004820152602960248201527f455243313135353a206163636f756e747320616e6420696473206c656e67746860448201527f206d69736d61746368000000000000000000000000000000000000000000000060648201526084016103b3565b6000835167ffffffffffffffff8111156106615760e060020a634e487b7102600052604160045260246000fd5b60405190808252806020026020018201604052801561068a578160200160208202803683370190505b50905060005b8451811015610735576106f78582815181106106bf5760e060020a634e487b7102600052603260045260246000fd5b60200260200101518583815181106106ea5760e060020a634e487b7102600052603260045260246000fd5b6020026020010151610336565b82828151811061071a5760e060020a634e487b7102600052603260045260246000fd5b602090810291909101015261072e81613b47565b9050610690565b509392505050565b6000806060806005548511156107985760405160e560020a62461bcd02815260206004820152601160248201527f5f6964206f7574206f6620626f756e647300000000000000000000000000000060448201526064016103b3565b60008581526003602090815260408083208151608081018352815481526001820154600160a060020a03169381019390935260028101805491928401916107de90613adc565b80601f016020809104026020016040519081016040528092919081815260200182805461080a90613adc565b80156108575780601f1061082c57610100808354040283529160200191610857565b820191906000526020600020905b81548152906001019060200180831161083a57829003601f168201915b5050505050815260200160038201805461087090613adc565b80601f016020809104026020016040519081016040528092919081815260200182805461089c90613adc565b80156108e95780601f106108be576101008083540402835291602001916108e9565b820191906000526020600020905b8154815290600101906020018083116108cc57829003601f168201915b505050919092525050506020810151815160408301516060909301519199909850919650945092505050565b6000600160a060020a0388166109405760405160e560020a62461bcd0281526004016103b3906139b0565b6109803388888080601f0160208091040260200160405190810160405280939291908181526020018383808284376000920191909152506121f592505050565b60056000815461098f90613b47565b918290555090506109cf88828660005b6040519080825280601f01601f1916602001820160405280156109c9576020820181803683370190505b506122c0565b60405180608001604052808681526020016109e73390565b600160a060020a0316815260200188888080601f016020809104026020016040519081016040528093929190818152602001838380828437600092019190915250505090825250604080516020601f870181900481028201810190925285815291810191908690869081908401838280828437600092018290525093909452505083815260036020908152604091829020845181558482015160018201805473ffffffffffffffffffffffffffffffffffffffff1916600160a060020a03909216919091179055918401518051929350610aca9260028501929190910190612b4b565b5060608201518051610ae6916003840191602090910190612b4b565b5090505084610af23390565b600160a060020a03167f19fdba3b3fa810260206510aa7278c70ea23c0d104195bed67bfb27a3d82fbfe8387604051610b35929190918252602082015260400190565b60405180910390a3979650505050505050565b600160a060020a038916610ba15760405160e560020a62461bcd02815260206004820152601c60248201527f5f746f2061646472657373206d757374206265206e6f6e2d7a65726f0000000060448201526064016103b3565b600160a060020a038a16610bfa5760405160e560020a62461bcd02815260206004820152601e60248201527f5f66726f6d2061646472657373206d757374206265206e6f6e2d7a65726f000060448201526064016103b3565b868514610c1c5760405160e560020a62461bcd0281526004016103b3906138bf565b848114610c6e5760405160e560020a62461bcd02815260206004820152601760248201527f417272617973206e6f742073616d65206c656e6774682e00000000000000000060448201526064016103b3565b600160a060020a038a16331480610c8a5750610c8a8a336102f5565b610cd95760405160e560020a62461bcd02815260206004820152601460248201527f4e6f206f70657261746f7220617070726f76616c00000000000000000000000060448201526064016103b3565b86610d295760405160e560020a62461bcd02815260206004820152601960248201527f6e6f20636572746966696361746573207370656369666965640000000000000060448201526064016103b3565b8660008167ffffffffffffffff811115610d565760e060020a634e487b7102600052604160045260246000fd5b604051908082528060200260200182016040528015610d7f578160200160208202803683370190505b50905060005b82811015610f75576000600360008d8d85818110610db65760e060020a634e487b7102600052603260045260246000fd5b602090810292909201358352508181019290925260409081016000208151608081018352815481526001820154600160a060020a0316938101939093526002810180549192840191610e0790613adc565b80601f0160208091040260200160405190810160405280929190818152602001828054610e3390613adc565b8015610e805780601f10610e5557610100808354040283529160200191610e80565b820191906000526020600020905b815481529060010190602001808311610e6357829003601f168201915b50505050508152602001600382018054610e9990613adc565b80601f0160208091040260200160405190810160405280929190818152602001828054610ec590613adc565b8015610f125780601f10610ee757610100808354040283529160200191610f12565b820191906000526020600020905b815481529060010190602001808311610ef557829003601f168201915b5050505050815250509050610f2f816020015182604001516121f5565b8060000151838381518110610f575760e060020a634e487b7102600052603260045260246000fd5b60209081029190910101525080610f6d81613b47565b915050610d85565b508a600160a060020a03168c600160a060020a031614611043576110438c8c8c8c80806020026020016040519081016040528093929190818152602001838360200280828437600081840152601f19601f820116905080830192505050505050508b8b8080602002602001604051908101604052809392919081815260200183836020028082843760009201919091525050604080516020601f8f018190048102820181019092528d815292508d91508c908190840183828082843760009201919091525061051392505050565b60005b828110156110bd576110ab8c8c8c848181106110755760e060020a634e487b7102600052603260045260246000fd5b905060200201358b8b8581811061109f5760e060020a634e487b7102600052603260045260246000fd5b90506020020135612393565b806110b581613b47565b915050611046565b50806040516110cc9190613537565b60405180910390208b600160a060020a03168d600160a060020a03167f61a69d58bffe77be60879031f7e6d3d17fab9c88a681899a549d20ae8a39f8d08d8d8d8d8b8b60405161112196959493929190613664565b60405180910390a4505050505050505050505050565b600160a060020a0382166111605760405160e560020a62461bcd0281526004016103b3906139b0565b600081116111b35760405160e560020a62461bcd02815260206004820152601a60248201527f5f7175616e74697479206d7573742062652061626f766520302e00000000000060448201526064016103b3565b60008381526003602090815260408083208151608081018352815481526001820154600160a060020a03169381019390935260028101805491928401916111f990613adc565b80601f016020809104026020016040519081016040528092919081815260200182805461122590613adc565b80156112725780601f1061124757610100808354040283529160200191611272565b820191906000526020600020905b81548152906001019060200180831161125557829003601f168201915b5050505050815260200160038201805461128b90613adc565b80601f01602080910402602001604051908101604052809291908181526020018280546112b790613adc565b80156113045780601f106112d957610100808354040283529160200191611304565b820191906000526020600020905b8154815290600101906020018083116112e757829003601f168201915b50505050508152505090508060200151600160a060020a03166113243390565b600160a060020a03161461137d5760405160e560020a62461bcd02815260206004820152601360248201527f4e6f74206f726967696e616c206973737565720000000000000000000000000060448201526064016103b3565b61138a838584600061099f565b50505050565b6060600160a060020a038a166113bb5760405160e560020a62461bcd0281526004016103b3906139b0565b8184146113dd5760405160e560020a62461bcd0281526004016103b3906138bf565b8388146113ff5760405160e560020a62461bcd0281526004016103b3906138bf565b8367ffffffffffffffff8111156114295760e060020a634e487b7102600052604160045260246000fd5b604051908082528060200260200182016040528015611452578160200160208202803683370190505b5090503360005b85811161152c5760055461146d9082613a98565b611478906001613a98565b83828151811061149b5760e060020a634e487b7102600052603260045260246000fd5b60200260200101818152505061151a828c8c848181106114ce5760e060020a634e487b7102600052603260045260246000fd5b90506020028101906114e09190613a2f565b8080601f0160208091040260200160405190810160405280939291908181526020018383808284376000920191909152506121f592505050565b8061152481613b47565b915050611459565b5061159b8b838888808060200260200160405190810160405280939291908181526020018383602002808284376000920182905250925061156b915050565b6040519080825280601f01601f191660200182016040528015611595576020820181803683370190505b506123f8565b60005b825181101561178f5760405180608001604052808a8a848181106115d55760e060020a634e487b7102600052603260045260246000fd5b90506020020135815260200183600160a060020a031681526020018c8c848181106116135760e060020a634e487b7102600052603260045260246000fd5b90506020028101906116259190613a2f565b8080601f0160208091040260200160405190810160405280939291908181526020018383808284376000920191909152505050908252506020018686848181106116825760e060020a634e487b7102600052603260045260246000fd5b90506020028101906116949190613a2f565b8080601f01602080910402602001604051908101604052809392919081815260200183838082843760009201829052509390945250508551600392508690859081106116f35760e060020a634e487b7102600052603260045260246000fd5b602002602001015181526020019081526020016000206000820151816000015560208201518160010160006101000a815481600160a060020a030219169083600160a060020a03160217905550604082015181600201908051906020019061175c929190612b4b565b5060608201518051611778916003840191602090910190612b4b565b50905050808061178790613b47565b91505061159e565b5087876040516117a09291906134f4565b604051809103902081600160a060020a03167f4337762bcc37db59d5eea698d442c9782e625db731704f4f83ed376a09b64e6c8489896040516117e593929190613737565b60405180910390a3509998505050505050505050565b606083821461184f5760405160e560020a62461bcd02815260206004820152601e60248201527f6f776e65727320616e6420696473206c656e677468206d69736d61746368000060448201526064016103b3565b60008467ffffffffffffffff81111561187b5760e060020a634e487b7102600052604160045260246000fd5b6040519080825280602002602001820160405280156118a4578160200160208202803683370190505b50905060005b858110156119d65730633ebbaaa58888848181106118db5760e060020a634e487b7102600052603260045260246000fd5b90506020020160208101906118f09190612d6a565b8787858181106119135760e060020a634e487b7102600052603260045260246000fd5b60405160e060020a63ffffffff8716028152600160a060020a039094166004850152602002919091013560248301525060440160206040518083038186803b15801561195e57600080fd5b505afa158015611972573d6000803e3d6000fd5b505050506040513d601f19601f8201168201806040525081019061199691906133aa565b8282815181106119b95760e060020a634e487b7102600052603260045260246000fd5b6020908102919091010152806119ce81613b47565b9150506118aa565b5095945050505050565b33600160a060020a0383161415611a625760405160e560020a62461bcd02815260206004820152602960248201527f455243313135353a2073657474696e6720617070726f76616c2073746174757360448201527f20666f722073656c66000000000000000000000000000000000000000000000060648201526084016103b3565b336000818152600160209081526040808320600160a060020a03871680855290835292819020805460ff191686151590811790915590519081529192917f17307eab39ab6107e8899845ad3d59bd9653f200f220920489ca2b5937696c31910160405180910390a35050565b60008681526003602090815260408083208151608081018352815481526001820154600160a060020a0316938101939093526002810180549192840191611b1490613adc565b80601f0160208091040260200160405190810160405280929190818152602001828054611b4090613adc565b8015611b8d5780601f10611b6257610100808354040283529160200191611b8d565b820191906000526020600020905b815481529060010190602001808311611b7057829003601f168201915b50505050508152602001600382018054611ba690613adc565b80601f0160208091040260200160405190810160405280929190818152602001828054611bd290613adc565b8015611c1f5780601f10611bf457610100808354040283529160200191611c1f565b820191906000526020600020905b815481529060010190602001808311611c0257829003601f168201915b5050505050815250509050611c3c816020015182604001516121f5565b600160a060020a038816611c655760405160e560020a62461bcd0281526004016103b3906139b0565b600160a060020a038916611cbe5760405160e560020a62461bcd02815260206004820152601f60248201527f5f66726f6d2061646472657373206d757374206265206e6f6e2d7a65726f2e0060448201526064016103b3565b600160a060020a038916331480611cda5750611cda89336102f5565b611d295760405160e560020a62461bcd02815260206004820152601460248201527f4e6f206f70657261746f7220617070726f76616c00000000000000000000000060448201526064016103b3565b85611d348a89610336565b1015611d855760405160e560020a62461bcd02815260206004820152601e60248201527f5f66726f6d2062616c616e6365206c657373207468616e205f76616c7565000060448201526064016103b3565b87600160a060020a031689600160a060020a031614611de157611de18989898989898080601f016020809104026020016040519081016040528093929190818152602001838380828437600092019190915250611f9092505050565b611dec888888612393565b806000015188600160a060020a03168a600160a060020a03167fde6a12665e566ee081354e23cd8474944fb8e89a25b46f2f9b50d378e7e536088a8a8888604051611e3a9493929190613a0f565b60405180910390a4505050505050505050565b6003602052600090815260409020805460018201546002830180549293600160a060020a0390921692611e7f90613adc565b80601f0160208091040260200160405190810160405280929190818152602001828054611eab90613adc565b8015611ef85780601f10611ecd57610100808354040283529160200191611ef8565b820191906000526020600020905b815481529060010190602001808311611edb57829003601f168201915b505050505090806003018054611f0d90613adc565b80601f0160208091040260200160405190810160405280929190818152602001828054611f3990613adc565b8015611f865780601f10611f5b57610100808354040283529160200191611f86565b820191906000526020600020905b815481529060010190602001808311611f6957829003601f168201915b5050505050905084565b600160a060020a038516331480611fac5750611fac85336102f5565b6120215760405160e560020a62461bcd02815260206004820152602960248201527f455243313135353a2063616c6c6572206973206e6f74206f776e6572206e6f7260448201527f20617070726f766564000000000000000000000000000000000000000000000060648201526084016103b3565b6105b1858585858561256b565b81518351146120525760405160e560020a62461bcd0281526004016103b3906138f6565b600160a060020a03841661207b5760405160e560020a62461bcd0281526004016103b390613805565b3360005b84518110156121875760008582815181106120ad5760e060020a634e487b7102600052603260045260246000fd5b6020026020010151905060008583815181106120dc5760e060020a634e487b7102600052603260045260246000fd5b60209081029190910181015160008481528083526040808220600160a060020a038e16835290935291909120549091508181101561212f5760405160e560020a62461bcd0281526004016103b390613862565b600083815260208181526040808320600160a060020a038e8116855292528083208585039055908b1682528120805484929061216c908490613a98565b925050819055505050508061218090613b47565b905061207f565b5084600160a060020a031686600160a060020a031682600160a060020a03167f4a39dc06d4c0dbc64b70af90fd698a233a518aa5d07e595d983b8c0526c8f7fb87876040516121d7929190613767565b60405180910390a46121ed81878787878761268e565b505050505050565b60008083600160a060020a031683604051612210919061356d565b600060405180830381855afa9150503d806000811461224b576040519150601f19603f3d011682016040523d82523d6000602084013e612250565b606091505b5091509150818015612271575080806020019051810190612271919061333e565b61138a5760405160e560020a62461bcd02815260206004820152601b60248201527f526571756573742f636572746966696361746520696e76616c6964000000000060448201526064016103b3565b600160a060020a0384166122e95760405160e560020a62461bcd0281526004016103b390613953565b33612303816000876122fa8861283d565b6105b18861283d565b600084815260208181526040808320600160a060020a038916845290915281208054859290612333908490613a98565b90915550506040805185815260208101859052600160a060020a0380881692600092918516917fc3d58168c5ae7397731d063d5bbf3d657854427343f4c083240f7aacaa2d0f62910160405180910390a46105b181600087878787612899565b61239e838383612998565b6000828152600460209081526040808320600160a060020a03871684529091529020546123cc908290613a98565b6000928352600460209081526040808520600160a060020a039096168552949052929091209190915550565b600160a060020a0384166124215760405160e560020a62461bcd0281526004016103b390613953565b81518351146124455760405160e560020a62461bcd0281526004016103b3906138f6565b3360005b8451811015612503578381815181106124755760e060020a634e487b7102600052603260045260246000fd5b60200260200101516000808784815181106124a35760e060020a634e487b7102600052603260045260246000fd5b60200260200101518152602001908152602001600020600088600160a060020a0316600160a060020a0316815260200190815260200160002060008282546124eb9190613a98565b909155508190506124fb81613b47565b915050612449565b5084600160a060020a03166000600160a060020a031682600160a060020a03167f4a39dc06d4c0dbc64b70af90fd698a233a518aa5d07e595d983b8c0526c8f7fb8787604051612554929190613767565b60405180910390a46105b18160008787878761268e565b600160a060020a0384166125945760405160e560020a62461bcd0281526004016103b390613805565b336125a48187876122fa8861283d565b600084815260208181526040808320600160a060020a038a168452909152902054838110156125e85760405160e560020a62461bcd0281526004016103b390613862565b600085815260208181526040808320600160a060020a038b8116855292528083208785039055908816825281208054869290612625908490613a98565b90915550506040805186815260208101869052600160a060020a03808916928a821692918616917fc3d58168c5ae7397731d063d5bbf3d657854427343f4c083240f7aacaa2d0f62910160405180910390a4612685828888888888612899565b50505050505050565b600160a060020a0384163b156121ed576040517fbc197c81000000000000000000000000000000000000000000000000000000008152600160a060020a0385169063bc197c81906126eb9089908990889088908890600401613589565b602060405180830381600087803b15801561270557600080fd5b505af1925050508015612735575060408051601f3d908101601f1916820190925261273291810190613376565b60015b6127f157612741613b94565b806308c379a0141561277e5750612756613bb0565b806127615750612780565b8060405160e560020a62461bcd0281526004016103b39190613795565b505b60405160e560020a62461bcd02815260206004820152603460248201527f455243313135353a207472616e7366657220746f206e6f6e204552433131353560448201527f526563656976657220696d706c656d656e74657200000000000000000000000060648201526084016103b3565b600160e060020a031981167fbc197c8100000000000000000000000000000000000000000000000000000000146126855760405160e560020a62461bcd0281526004016103b3906137a8565b604080516001808252818301909252606091600091906020808301908036833701905050905082816000815181106128885760e060020a634e487b7102600052603260045260246000fd5b602090810291909101015292915050565b600160a060020a0384163b156121ed576040517ff23a6e61000000000000000000000000000000000000000000000000000000008152600160a060020a0385169063f23a6e61906128f690899089908890889088906004016135e7565b602060405180830381600087803b15801561291057600080fd5b505af1925050508015612940575060408051601f3d908101601f1916820190925261293d91810190613376565b60015b61294c57612741613b94565b600160e060020a031981167ff23a6e6100000000000000000000000000000000000000000000000000000000146126855760405160e560020a62461bcd0281526004016103b3906137a8565b600160a060020a038316612a175760405160e560020a62461bcd02815260206004820152602360248201527f455243313135353a206275726e2066726f6d20746865207a65726f206164647260448201527f657373000000000000000000000000000000000000000000000000000000000060648201526084016103b3565b33612a4781856000612a288761283d565b612a318761283d565b5050604080516020810190915260009052505050565b600083815260208181526040808320600160a060020a038816845290915290205482811015612ae05760405160e560020a62461bcd028152602060048201526024808201527f455243313135353a206275726e20616d6f756e7420657863656564732062616c60448201527f616e63650000000000000000000000000000000000000000000000000000000060648201526084016103b3565b600084815260208181526040808320600160a060020a03898116808652918452828520888703905582518981529384018890529092908616917fc3d58168c5ae7397731d063d5bbf3d657854427343f4c083240f7aacaa2d0f62910160405180910390a45050505050565b828054612b5790613adc565b90600052602060002090601f016020900481019282612b795760008555612bbf565b82601f10612b9257805160ff1916838001178555612bbf565b82800160010185558215612bbf579182015b82811115612bbf578251825591602001919060010190612ba4565b50612bcb929150612bcf565b5090565b5b80821115612bcb5760008155600101612bd0565b8035600160a060020a0381168114612bfb57600080fd5b919050565b60008083601f840112612c11578182fd5b50813567ffffffffffffffff811115612c28578182fd5b6020830191508360208083028501011115612c4257600080fd5b9250929050565b600082601f830112612c59578081fd5b81356020612c6682613a74565b604051612c738282613b1a565b838152828101915085830183850287018401881015612c90578586fd5b855b85811015612cae57813584529284019290840190600101612c92565b5090979650505050505050565b60008083601f840112612ccc578182fd5b50813567ffffffffffffffff811115612ce3578182fd5b602083019150836020828501011115612c4257600080fd5b600082601f830112612d0b578081fd5b813567ffffffffffffffff811115612d2557612d25613b7b565b604051612d3c601f8301601f191660200182613b1a565b818152846020838601011115612d50578283fd5b816020850160208301379081016020019190915292915050565b600060208284031215612d7b578081fd5b612d8482612be4565b9392505050565b60008060408385031215612d9d578081fd5b612da683612be4565b9150612db460208401612be4565b90509250929050565b60008060008060008060008060008060c08b8d031215612ddb578586fd5b612de48b612be4565b9950612df260208c01612be4565b985060408b013567ffffffffffffffff80821115612e0e578788fd5b612e1a8e838f01612c00565b909a50985060608d0135915080821115612e32578788fd5b612e3e8e838f01612c00565b909850965060808d0135915080821115612e56578586fd5b612e628e838f01612cbb565b909650945060a08d0135915080821115612e7a578384fd5b50612e878d828e01612c00565b915080935050809150509295989b9194979a5092959850565b600080600080600060a08688031215612eb7578081fd5b612ec086612be4565b9450612ece60208701612be4565b9350604086013567ffffffffffffffff80821115612eea578283fd5b612ef689838a01612c49565b94506060880135915080821115612f0b578283fd5b612f1789838a01612c49565b93506080880135915080821115612f2c578283fd5b50612f3988828901612cfb565b9150509295509295909350565b60008060008060008060008060c0898b031215612f61578384fd5b612f6a89612be4565b9750612f7860208a01612be4565b96506040890135955060608901359450608089013567ffffffffffffffff80821115612fa2578586fd5b612fae8c838d01612cbb565b909650945060a08b0135915080821115612fc6578384fd5b50612fd38b828c01612cbb565b999c989b5096995094979396929594505050565b600080600080600060a08688031215612ffe578283fd5b61300786612be4565b945061301560208701612be4565b93506040860135925060608601359150608086013567ffffffffffffffff81111561303e578182fd5b612f3988828901612cfb565b600080600080600080600080600060a08a8c031215613067578283fd5b6130708a612be4565b985060208a013567ffffffffffffffff8082111561308c578485fd5b6130988d838e01612c00565b909a50985060408c01359150808211156130b0578485fd5b6130bc8d838e01612c00565b909850965060608c01359150808211156130d4578485fd5b6130e08d838e01612c00565b909650945060808c01359150808211156130f8578384fd5b506131058c828d01612c00565b915080935050809150509295985092959850929598565b6000806040838503121561312e578182fd5b61313783612be4565b9150602083013561314781613c3a565b809150509250929050565b600080600080600080600060a0888a03121561316c578081fd5b61317588612be4565b9650602088013567ffffffffffffffff80821115613191578283fd5b61319d8b838c01612cbb565b909850965060408a0135955060608a0135945060808a01359150808211156131c3578283fd5b506131d08a828b01612cbb565b989b979a50959850939692959293505050565b600080604083850312156131f5578182fd5b6131fe83612be4565b946020939093013593505050565b60008060008060408587031215613221578182fd5b843567ffffffffffffffff80821115613238578384fd5b61324488838901612c00565b9096509450602087013591508082111561325c578384fd5b5061326987828801612c00565b95989497509550505050565b60008060408385031215613287578182fd5b823567ffffffffffffffff8082111561329e578384fd5b818501915085601f8301126132b1578384fd5b813560206132be82613a74565b6040516132cb8282613b1a565b8381528281019150858301838502870184018b10156132e8578889fd5b8896505b84871015613311576132fd81612be4565b8352600196909601959183019183016132ec565b5096505086013592505080821115613327578283fd5b5061333485828601612c49565b9150509250929050565b60006020828403121561334f578081fd5b8151612d8481613c3a565b60006020828403121561336b578081fd5b8135612d8481613c4b565b600060208284031215613387578081fd5b8151612d8481613c4b565b6000602082840312156133a3578081fd5b5035919050565b6000602082840312156133bb578081fd5b5051919050565b600080604083850312156133d4578182fd5b82359150612db460208401612be4565b6000806000606084860312156133f8578081fd5b8335925061340860208501612be4565b9150604084013590509250925092565b81835260007f07ffffffffffffffffffffffffffffffffffffffffffffffffffffffffffffff831115613449578081fd5b6020830280836020870137939093016020019283525090919050565b6000815180845260208085019450808401835b8381101561349457815187529582019590820190600101613478565b509495945050505050565b81835281816020850137506000828201602090810191909152601f909101601f19169091010190565b600081518084526134e0816020860160208601613ab0565b601f01601f19169290920160200192915050565b60007f07ffffffffffffffffffffffffffffffffffffffffffffffffffffffffffffff831115613522578081fd5b60208302808584379190910190815292915050565b815160009082906020808601845b8381101561356157815185529382019390820190600101613545565b50929695505050505050565b6000825161357f818460208701613ab0565b9190910192915050565b6000600160a060020a03808816835280871660208401525060a060408301526135b560a0830186613465565b82810360608401526135c78186613465565b905082810360808401526135db81856134c8565b98975050505050505050565b6000600160a060020a03808816835280871660208401525084604083015283606083015260a0608083015261361f60a08301846134c8565b979650505050505050565b600160a060020a038516815283602082015260806040820152600061365260808301856134c8565b828103606084015261361f81856134c8565b60608152600061367860608301888a613418565b60208382038185015261368c82888a613418565b848103604086015285815291508082018186028301820187855b8881101561371257858303601f190184528135368b9003601e190181126136cb578788fd5b8a01803567ffffffffffffffff8111156136e3578889fd5b8036038c13156136f1578889fd5b6136fe858289850161349f565b9587019594505050908401906001016136a6565b50909c9b505050505050505050505050565b602081526000612d846020830184613465565b60408152600061374a6040830186613465565b828103602084015261375d818587613418565b9695505050505050565b60408152600061377a6040830185613465565b828103602084015261378c8185613465565b95945050505050565b602081526000612d8460208301846134c8565b60208082526028908201527f455243313135353a204552433131353552656365697665722072656a6563746560408201527f6420746f6b656e73000000000000000000000000000000000000000000000000606082015260800190565b60208082526025908201527f455243313135353a207472616e7366657220746f20746865207a65726f20616460408201527f6472657373000000000000000000000000000000000000000000000000000000606082015260800190565b6020808252602a908201527f455243313135353a20696e73756666696369656e742062616c616e636520666f60408201527f72207472616e7366657200000000000000000000000000000000000000000000606082015260800190565b60208082526016908201527f417272617973206e6f742073616d65206c656e67746800000000000000000000604082015260600190565b60208082526028908201527f455243313135353a2069647320616e6420616d6f756e7473206c656e6774682060408201527f6d69736d61746368000000000000000000000000000000000000000000000000606082015260800190565b60208082526021908201527f455243313135353a206d696e7420746f20746865207a65726f2061646472657360408201527f7300000000000000000000000000000000000000000000000000000000000000606082015260800190565b60208082526015908201527f5f746f206d757374206265206e6f6e2d7a65726f2e0000000000000000000000604082015260600190565b848152600160a060020a038416602082015260806040820152600061365260808301856134c8565b84815283602082015260606040820152600061375d60608301848661349f565b6000808335601e19843603018112613a45578283fd5b83018035915067ffffffffffffffff821115613a5f578283fd5b602001915036819003821315612c4257600080fd5b600067ffffffffffffffff821115613a8e57613a8e613b7b565b5060209081020190565b60008219821115613aab57613aab613b62565b500190565b60005b83811015613acb578181015183820152602001613ab3565b8381111561138a5750506000910152565b600281046001821680613af057607f821691505b60208210811415613b145760e060020a634e487b7102600052602260045260246000fd5b50919050565b601f8201601f1916810167ffffffffffffffff81118282101715613b4057613b40613b7b565b6040525050565b6000600019821415613b5b57613b5b613b62565b5060010190565b60e060020a634e487b7102600052601160045260246000fd5b60e060020a634e487b7102600052604160045260246000fd5b600060033d1115613bad57600481823e5160e060020a90045b90565b600060443d1015613bbe5790565b6040516003193d81016004833e81513d67ffffffffffffffff8160248401118184111715613bee57505050505090565b8285019150815181811115613c065750505050505090565b843d8701016020828501011115613c205750505050505090565b613c2f60208286010187613b1a565b509095945050505050565b8015158114613c4857600080fd5b50565b600160e060020a031981168114613c4857600080fdfea2646970667358221220e8c57e2de4a0ea6eb44b56e1eaa2e90c7170b1e71f0a04d9698238c24e29013e64736f6c63430008040033",
  "immutableReferences": {},
  "source": "// SPDX-License-Identifier: GPL-3.0-or-later\npragma solidity 0.8.4;\n\nimport \"@openzeppelin/contracts/token/ERC1155/ERC1155.sol\";\nimport \"./ERC1888/IERC1888.sol\";\n\n/// @title Implementation of the Transferable Certificate standard ERC-1888.\n/// @dev Also complies to ERC-1155: https://eips.ethereum.org/EIPS/eip-1155.\n/// @dev ** Data set to 0 because there is no meaningful check yet to be done on the data\ncontract Registry is ERC1155, ERC1888 {\n\n\t// Storage for the Certificate structs\n\tmapping(uint256 => Certificate) public certificateStorage;\n\n\t// Mapping from token ID to account balances\n\tmapping(uint256 => mapping(address => uint256)) public claimedBalances;\n\n\t// Incrementing nonce, used for generating certificate IDs\n    uint256 internal _latestCertificateId;\n\n\tconstructor(string memory _uri) ERC1155(_uri) {\n\t\t// Trigger ERC1155 constructor\n\t}\n\n\t/// @notice See {IERC1888-issue}.\n    /// @dev `_to` cannot be the zero address.\n\tfunction issue(address _to, bytes calldata _validityData, uint256 _topic, uint256 _value, bytes calldata _data) external override returns (uint256 id) {\n\t\trequire(_to != address(0x0), \"_to must be non-zero.\");\n\t\t\n\t\t_validate(_msgSender(), _validityData);\n\n\t\tid = ++_latestCertificateId;\n\t\tERC1155._mint(_to, id, _value, new bytes(0)); // Check **\n\n\t\tcertificateStorage[id] = Certificate({\n\t\t\ttopic: _topic,\n\t\t\tissuer: _msgSender(),\n\t\t\tvalidityData: _validityData,\n\t\t\tdata: _data\n\t\t});\n\n\t\temit IssuanceSingle(_msgSender(), _topic, id, _value);\n\t}\n\n\t/// @notice See {IERC1888-batchIssue}.\n    /// @dev `_to` cannot be the zero address.\n    /// @dev `_data`, `_values` and `_validityData` must have the same length.\n\tfunction batchIssue(address _to, bytes[] calldata _validityData, uint256[] calldata _topics, uint256[] calldata _values, bytes[] calldata _data) external override returns (uint256[] memory ids) {\n\t\trequire(_to != address(0x0), \"_to must be non-zero.\");\n\t\trequire(_data.length == _values.length, \"Arrays not same length\");\n\t\trequire(_values.length == _validityData.length, \"Arrays not same length\");\n\n\t\tids = new uint256[](_values.length);\n\n\t\taddress operator = _msgSender();\n\n\t\tfor (uint256 i = 0; i <= _values.length; i++) {\n\t\t\tids[i] = i + _latestCertificateId + 1;\n\t\t\t_validate(operator, _validityData[i]);\n\t\t}\n\t\t\t\n\t\tERC1155._mintBatch(_to, ids, _values, new bytes(0)); // Check **\n\n\t\tfor (uint256 i = 0; i < ids.length; i++) {\n\t\t\tcertificateStorage[ids[i]] = Certificate({\n\t\t\t\ttopic: _topics[i],\n\t\t\t\tissuer: operator,\n\t\t\t\tvalidityData: _validityData[i],\n\t\t\t\tdata: _data[i]\n\t\t\t});\n\t\t}\n\n\t\temit IssuanceBatch(operator, _topics, ids, _values);\n\t}\n\n\t/// @notice Allows the issuer to mint more fungible tokens for existing ERC-188 certificates.\n    /// @dev Allows batch issuing to an array of _to addresses.\n    /// @dev `_to` cannot be the zero address.\n\tfunction mint(uint256 _id, address _to, uint256 _quantity) external {\n\t\trequire(_to != address(0x0), \"_to must be non-zero.\");\n\t\trequire(_quantity > 0, \"_quantity must be above 0.\");\n\n\t\tCertificate memory cert = certificateStorage[_id];\n\t\trequire(_msgSender() == cert.issuer, \"Not original issuer\");\n\n\t\tERC1155._mint(_to, _id, _quantity, new bytes(0)); // Check **\n\t}\n\n\t/// @notice See {IERC1888-safeTransferAndClaimFrom}.\n    /// @dev `_to` cannot be the zero address.\n    /// @dev `_from` has to have a balance above or equal `_value`.\n\tfunction safeTransferAndClaimFrom(\n\t\taddress _from,\n\t\taddress _to,\n\t\tuint256 _id,\n\t\tuint256 _value,\n\t\tbytes calldata _data,\n\t\tbytes calldata _claimData\n\t) external override {\n\t\tCertificate memory cert = certificateStorage[_id];\n\n\t\t_validate(cert.issuer,  cert.validityData);\n\n        require(_to != address(0x0), \"_to must be non-zero.\");\n\t\trequire(_from != address(0x0), \"_from address must be non-zero.\");\n\n        require(_from == _msgSender() || ERC1155.isApprovedForAll(_from, _msgSender()), \"No operator approval\");\n        require(ERC1155.balanceOf(_from, _id) >= _value, \"_from balance less than _value\");\n\n\t\tif (_from != _to) {\n\t\t\tsafeTransferFrom(_from, _to, _id, _value, _data);\n\t\t}\n\n\t\t_burn(_to, _id, _value);\n\n\t\temit ClaimSingle(_from, _to, cert.topic, _id, _value, _claimData); //_claimSubject address ??\n\t}\n\n\t/// @notice See {IERC1888-safeBatchTransferAndClaimFrom}.\n    /// @dev `_to` and `_from` cannot be the zero addresses.\n    /// @dev `_from` has to have a balance above 0.\n\tfunction safeBatchTransferAndClaimFrom(\n\t\taddress _from,\n\t\taddress _to,\n\t\tuint256[] calldata _ids,\n\t\tuint256[] calldata _values,\n\t\tbytes calldata _data,\n\t\tbytes[] calldata _claimData\n\t) external override {\n\n        require(_to != address(0x0), \"_to address must be non-zero\");\n\t\trequire(_from != address(0x0), \"_from address must be non-zero\");\n\n        require(_ids.length == _values.length, \"Arrays not same length\");\n\t\trequire(_values.length == _claimData.length, \"Arrays not same length.\");\n        require(_from == _msgSender() || ERC1155.isApprovedForAll(_from, _msgSender()), \"No operator approval\");\n\n\t\trequire(_ids.length > 0, \"no certificates specified\");\n\n\t\tuint256 numberOfClaims = _ids.length;\n\n\t\tuint256[] memory topics = new uint256[](numberOfClaims);\n\n\t\tfor (uint256 i = 0; i < numberOfClaims; i++) {\n\t\t\tCertificate memory cert = certificateStorage[_ids[i]];\n\t\t\t_validate(cert.issuer,  cert.validityData);\n\t\t\ttopics[i] = cert.topic;\n\t\t}\n\n\t\tif (_from != _to) {\n\t\t\tsafeBatchTransferFrom(_from, _to, _ids, _values, _data);\n\t\t}\n\n\t\tfor (uint256 i = 0; i < numberOfClaims; i++) {\n\t\t\t_burn(_to, _ids[i], _values[i]);\n\t\t}\n\n\t\temit ClaimBatch(_from, _to, topics, _ids, _values, _claimData);\n\t}\n\n\t/// @notice See {IERC1888-claimedBalanceOf}.\n\tfunction claimedBalanceOf(address _owner, uint256 _id) external override view returns (uint256) {\n\t\treturn claimedBalances[_id][_owner];\n\t}\n\n\t/// @notice See {IERC1888-claimedBalanceOfBatch}.\n\tfunction claimedBalanceOfBatch(address[] calldata _owners, uint256[] calldata _ids) external override view returns (uint256[] memory) {\n        require(_owners.length == _ids.length, \"owners and ids length mismatch\");\n\n        uint256[] memory batchClaimBalances = new uint256[](_owners.length);\n\n        for (uint256 i = 0; i < _owners.length; i++) {\n            batchClaimBalances[i] = this.claimedBalanceOf(_owners[i], _ids[i]);\n        }\n\n        return batchClaimBalances;\n\t}\n\n\t/// @notice See {IERC1888-getCertificate}.\n\tfunction getCertificate(uint256 _id) public view override returns (address issuer, uint256 topic, bytes memory validityCall, bytes memory data) {\n\t\trequire(_id <= _latestCertificateId, \"_id out of bounds\");\n\n\t\tCertificate memory certificate = certificateStorage[_id];\n\t\treturn (certificate.issuer, certificate.topic, certificate.validityData, certificate.data);\n\t}\n\n\t/// @notice Burn certificates after they've been claimed, and increase the claimed balance.\n\tfunction _burn(address _from, uint256 _id, uint256 _value) internal override {\n\t\tERC1155._burn(_from, _id, _value);\n\n\t\tclaimedBalances[_id][_from] = claimedBalances[_id][_from] + _value;\n\t}\n\n\t/// @notice Validate if the certificate is valid against an external `_verifier` contract.\n\tfunction _validate(address _verifier, bytes memory _validityData) internal view {\n\t\t(bool success, bytes memory result) = _verifier.staticcall(_validityData);\n\n\t\trequire(success && abi.decode(result, (bool)), \"Request/certificate invalid\");\n\t}\n}\n",
  "sourcePath": "/Users/van.tran/go/src/contract/issuer/contracts/Registry.sol",
  "compiler": {
    "name": "solc",
    "version": "0.8.4+commit.c7e474f2.Emscripten.clang"
  },
  "schemaVersion": "3.4.3",
  "updatedAt": "2021-10-13T02:36:52.123Z",
  "networkType": "ethereum",
  "devdoc": {
    "details": "Also complies to ERC-1155: https://eips.ethereum.org/EIPS/eip-1155.** Data set to 0 because there is no meaningful check yet to be done on the data",
    "kind": "dev",
    "methods": {
      "balanceOf(address,uint256)": {
        "details": "See {IERC1155-balanceOf}. Requirements: - `account` cannot be the zero address."
      },
      "balanceOfBatch(address[],uint256[])": {
        "details": "See {IERC1155-balanceOfBatch}. Requirements: - `accounts` and `ids` must have the same length."
      },
      "batchIssue(address,bytes[],uint256[],uint256[],bytes[])": {
        "details": "`_to` cannot be the zero address.`_data`, `_values` and `_validityData` must have the same length."
      },
      "isApprovedForAll(address,address)": {
        "details": "See {IERC1155-isApprovedForAll}."
      },
      "issue(address,bytes,uint256,uint256,bytes)": {
        "details": "`_to` cannot be the zero address."
      },
      "mint(uint256,address,uint256)": {
        "details": "Allows batch issuing to an array of _to addresses.`_to` cannot be the zero address."
      },
      "safeBatchTransferAndClaimFrom(address,address,uint256[],uint256[],bytes,bytes[])": {
        "details": "`_to` and `_from` cannot be the zero addresses.`_from` has to have a balance above 0."
      },
      "safeBatchTransferFrom(address,address,uint256[],uint256[],bytes)": {
        "details": "See {IERC1155-safeBatchTransferFrom}."
      },
      "safeTransferAndClaimFrom(address,address,uint256,uint256,bytes,bytes)": {
        "details": "`_to` cannot be the zero address.`_from` has to have a balance above or equal `_value`."
      },
      "safeTransferFrom(address,address,uint256,uint256,bytes)": {
        "details": "See {IERC1155-safeTransferFrom}."
      },
      "setApprovalForAll(address,bool)": {
        "details": "See {IERC1155-setApprovalForAll}."
      },
      "supportsInterface(bytes4)": {
        "details": "See {IERC165-supportsInterface}."
      },
      "uri(uint256)": {
        "details": "See {IERC1155MetadataURI-uri}. This implementation returns the same URI for *all* token types. It relies on the token type ID substitution mechanism https://eips.ethereum.org/EIPS/eip-1155#metadata[defined in the EIP]. Clients calling this function must replace the `\\{id\\}` substring with the actual token type ID."
      }
    },
    "title": "Implementation of the Transferable Certificate standard ERC-1888.",
    "version": 1
  },
  "userdoc": {
    "kind": "user",
    "methods": {
      "batchIssue(address,bytes[],uint256[],uint256[],bytes[])": {
        "notice": "See {IERC1888-batchIssue}."
      },
      "claimedBalanceOf(address,uint256)": {
        "notice": "See {IERC1888-claimedBalanceOf}."
      },
      "claimedBalanceOfBatch(address[],uint256[])": {
        "notice": "See {IERC1888-claimedBalanceOfBatch}."
      },
      "getCertificate(uint256)": {
        "notice": "See {IERC1888-getCertificate}."
      },
      "issue(address,bytes,uint256,uint256,bytes)": {
        "notice": "See {IERC1888-issue}."
      },
      "mint(uint256,address,uint256)": {
        "notice": "Allows the issuer to mint more fungible tokens for existing ERC-188 certificates."
      },
      "safeBatchTransferAndClaimFrom(address,address,uint256[],uint256[],bytes,bytes[])": {
        "notice": "See {IERC1888-safeBatchTransferAndClaimFrom}."
      },
      "safeTransferAndClaimFrom(address,address,uint256,uint256,bytes,bytes)": {
        "notice": "See {IERC1888-safeTransferAndClaimFrom}."
      }
    },
    "version": 1
  }
}